{
  "_format": "hh-sol-artifact-1",
  "contractName": "CropToken",
  "sourceName": "contracts/FarmChemicalContract.sol",
  "abi": [
    {
      "inputs": [
        {
          "internalType": "uint256",
          "name": "_initialSupply",
          "type": "uint256"
        }
      ],
      "stateMutability": "nonpayable",
      "type": "constructor"
    },
    {
      "anonymous": false,
      "inputs": [
        {
          "indexed": true,
          "internalType": "address",
          "name": "sender",
          "type": "address"
        },
        {
          "indexed": true,
          "internalType": "address",
          "name": "spender",
          "type": "address"
        },
        {
          "indexed": false,
          "internalType": "uint256",
          "name": "value",
          "type": "uint256"
        }
      ],
      "name": "Approval",
      "type": "event"
    },
    {
      "anonymous": false,
      "inputs": [
        {
          "indexed": true,
          "internalType": "address",
          "name": "from",
          "type": "address"
        },
        {
          "indexed": true,
          "internalType": "address",
          "name": "to",
          "type": "address"
        },
        {
          "indexed": true,
          "internalType": "address",
          "name": "sender",
          "type": "address"
        },
        {
          "indexed": false,
          "internalType": "uint256",
          "name": "value",
          "type": "uint256"
        }
      ],
      "name": "ApprovedTransfer",
      "type": "event"
    },
    {
      "anonymous": false,
      "inputs": [
        {
          "indexed": true,
          "internalType": "address",
          "name": "from",
          "type": "address"
        },
        {
          "components": [
            {
              "internalType": "string",
              "name": "chemicalType",
              "type": "string"
            },
            {
              "internalType": "string",
              "name": "locationUsed",
              "type": "string"
            },
            {
              "internalType": "uint256",
              "name": "amountUsed",
              "type": "uint256"
            },
            {
              "internalType": "uint256",
              "name": "cropCount",
              "type": "uint256"
            },
            {
              "internalType": "string",
              "name": "cropType",
              "type": "string"
            },
            {
              "internalType": "string",
              "name": "timestamp",
              "type": "string"
            },
            {
              "internalType": "string",
              "name": "imageLink",
              "type": "string"
            }
          ],
          "indexed": false,
          "internalType": "struct CropToken.Chemical",
          "name": "fertilizer",
          "type": "tuple"
        }
      ],
      "name": "Fertilizer",
      "type": "event"
    },
    {
      "anonymous": false,
      "inputs": [
        {
          "indexed": true,
          "internalType": "address",
          "name": "farm",
          "type": "address"
        },
        {
          "indexed": false,
          "internalType": "uint256",
          "name": "fertilizerLimit",
          "type": "uint256"
        },
        {
          "indexed": false,
          "internalType": "uint256",
          "name": "addedAmount",
          "type": "uint256"
        }
      ],
      "name": "FertilizerLimit",
      "type": "event"
    },
    {
      "anonymous": false,
      "inputs": [
        {
          "indexed": true,
          "internalType": "address",
          "name": "from",
          "type": "address"
        },
        {
          "components": [
            {
              "internalType": "string",
              "name": "chemicalType",
              "type": "string"
            },
            {
              "internalType": "string",
              "name": "locationUsed",
              "type": "string"
            },
            {
              "internalType": "uint256",
              "name": "amountUsed",
              "type": "uint256"
            },
            {
              "internalType": "uint256",
              "name": "cropCount",
              "type": "uint256"
            },
            {
              "internalType": "string",
              "name": "cropType",
              "type": "string"
            },
            {
              "internalType": "string",
              "name": "timestamp",
              "type": "string"
            },
            {
              "internalType": "string",
              "name": "imageLink",
              "type": "string"
            }
          ],
          "indexed": false,
          "internalType": "struct CropToken.Chemical",
          "name": "fungicide",
          "type": "tuple"
        }
      ],
      "name": "Fungicide",
      "type": "event"
    },
    {
      "anonymous": false,
      "inputs": [
        {
          "indexed": true,
          "internalType": "address",
          "name": "farm",
          "type": "address"
        },
        {
          "indexed": false,
          "internalType": "uint256",
          "name": "fungicideLimit",
          "type": "uint256"
        },
        {
          "indexed": false,
          "internalType": "uint256",
          "name": "addedAmount",
          "type": "uint256"
        }
      ],
      "name": "FungicideLimit",
      "type": "event"
    },
    {
      "anonymous": false,
      "inputs": [
        {
          "indexed": true,
          "internalType": "address",
          "name": "from",
          "type": "address"
        },
        {
          "components": [
            {
              "internalType": "string",
              "name": "chemicalType",
              "type": "string"
            },
            {
              "internalType": "string",
              "name": "locationUsed",
              "type": "string"
            },
            {
              "internalType": "uint256",
              "name": "amountUsed",
              "type": "uint256"
            },
            {
              "internalType": "uint256",
              "name": "cropCount",
              "type": "uint256"
            },
            {
              "internalType": "string",
              "name": "cropType",
              "type": "string"
            },
            {
              "internalType": "string",
              "name": "timestamp",
              "type": "string"
            },
            {
              "internalType": "string",
              "name": "imageLink",
              "type": "string"
            }
          ],
          "indexed": false,
          "internalType": "struct CropToken.Chemical",
          "name": "herbicide",
          "type": "tuple"
        }
      ],
      "name": "Herbicide",
      "type": "event"
    },
    {
      "anonymous": false,
      "inputs": [
        {
          "indexed": true,
          "internalType": "address",
          "name": "farm",
          "type": "address"
        },
        {
          "indexed": false,
          "internalType": "uint256",
          "name": "herbicideLimit",
          "type": "uint256"
        },
        {
          "indexed": false,
          "internalType": "uint256",
          "name": "addedAmount",
          "type": "uint256"
        }
      ],
      "name": "HerbicideLimit",
      "type": "event"
    },
    {
      "anonymous": false,
      "inputs": [
        {
          "indexed": true,
          "internalType": "address",
          "name": "from",
          "type": "address"
        },
        {
          "components": [
            {
              "internalType": "string",
              "name": "chemicalType",
              "type": "string"
            },
            {
              "internalType": "string",
              "name": "locationUsed",
              "type": "string"
            },
            {
              "internalType": "uint256",
              "name": "amountUsed",
              "type": "uint256"
            },
            {
              "internalType": "uint256",
              "name": "cropCount",
              "type": "uint256"
            },
            {
              "internalType": "string",
              "name": "cropType",
              "type": "string"
            },
            {
              "internalType": "string",
              "name": "timestamp",
              "type": "string"
            },
            {
              "internalType": "string",
              "name": "imageLink",
              "type": "string"
            }
          ],
          "indexed": false,
          "internalType": "struct CropToken.Chemical",
          "name": "insecticide",
          "type": "tuple"
        }
      ],
      "name": "Insecticide",
      "type": "event"
    },
    {
      "anonymous": false,
      "inputs": [
        {
          "indexed": true,
          "internalType": "address",
          "name": "farm",
          "type": "address"
        },
        {
          "indexed": false,
          "internalType": "uint256",
          "name": "insecticideLimit",
          "type": "uint256"
        },
        {
          "indexed": false,
          "internalType": "uint256",
          "name": "addedAmount",
          "type": "uint256"
        }
      ],
      "name": "InsecticideLimit",
      "type": "event"
    },
    {
      "anonymous": false,
      "inputs": [
        {
          "indexed": true,
          "internalType": "address",
          "name": "from",
          "type": "address"
        },
        {
          "indexed": true,
          "internalType": "address",
          "name": "to",
          "type": "address"
        },
        {
          "indexed": false,
          "internalType": "uint256",
          "name": "value",
          "type": "uint256"
        }
      ],
      "name": "Transfer",
      "type": "event"
    },
    {
      "inputs": [
        {
          "internalType": "address",
          "name": "_from",
          "type": "address"
        },
        {
          "internalType": "address",
          "name": "_to",
          "type": "address"
        },
        {
          "internalType": "uint256",
          "name": "_value",
          "type": "uint256"
        }
      ],
      "name": "approvalTransfer",
      "outputs": [
        {
          "internalType": "bool",
          "name": "success",
          "type": "bool"
        }
      ],
      "stateMutability": "nonpayable",
      "type": "function"
    },
    {
      "inputs": [
        {
          "internalType": "address",
          "name": "_spender",
          "type": "address"
        },
        {
          "internalType": "uint256",
          "name": "_value",
          "type": "uint256"
        }
      ],
      "name": "approve",
      "outputs": [
        {
          "internalType": "bool",
          "name": "success",
          "type": "bool"
        }
      ],
      "stateMutability": "nonpayable",
      "type": "function"
    },
    {
      "inputs": [
        {
          "internalType": "address",
          "name": "",
          "type": "address"
        }
      ],
      "name": "approvedAmount",
      "outputs": [
        {
          "internalType": "uint256",
          "name": "",
          "type": "uint256"
        }
      ],
      "stateMutability": "view",
      "type": "function"
    },
    {
      "inputs": [
        {
          "internalType": "address",
          "name": "",
          "type": "address"
        }
      ],
      "name": "balanceOf",
      "outputs": [
        {
          "internalType": "uint256",
          "name": "",
          "type": "uint256"
        }
      ],
      "stateMutability": "view",
      "type": "function"
    },
    {
      "inputs": [
        {
          "internalType": "address",
          "name": "",
          "type": "address"
        }
      ],
      "name": "fertilizerLimit",
      "outputs": [
        {
          "internalType": "uint256",
          "name": "",
          "type": "uint256"
        }
      ],
      "stateMutability": "view",
      "type": "function"
    },
    {
      "inputs": [
        {
          "internalType": "address",
          "name": "",
          "type": "address"
        }
      ],
      "name": "fungicideLimit",
      "outputs": [
        {
          "internalType": "uint256",
          "name": "",
          "type": "uint256"
        }
      ],
      "stateMutability": "view",
      "type": "function"
    },
    {
      "inputs": [
        {
          "internalType": "address",
          "name": "",
          "type": "address"
        }
      ],
      "name": "herbicideLimit",
      "outputs": [
        {
          "internalType": "uint256",
          "name": "",
          "type": "uint256"
        }
      ],
      "stateMutability": "view",
      "type": "function"
    },
    {
      "inputs": [
        {
          "internalType": "address",
          "name": "",
          "type": "address"
        }
      ],
      "name": "insecticideLimit",
      "outputs": [
        {
          "internalType": "uint256",
          "name": "",
          "type": "uint256"
        }
      ],
      "stateMutability": "view",
      "type": "function"
    },
    {
      "inputs": [],
      "name": "name",
      "outputs": [
        {
          "internalType": "string",
          "name": "",
          "type": "string"
        }
      ],
      "stateMutability": "view",
      "type": "function"
    },
    {
      "inputs": [
        {
          "internalType": "address",
          "name": "_farm",
          "type": "address"
        },
        {
          "internalType": "uint256",
          "name": "_fertilizerLimit",
          "type": "uint256"
        }
      ],
      "name": "setFertilizerLimit",
      "outputs": [
        {
          "internalType": "bool",
          "name": "success",
          "type": "bool"
        }
      ],
      "stateMutability": "nonpayable",
      "type": "function"
    },
    {
      "inputs": [
        {
          "internalType": "address",
          "name": "_farm",
          "type": "address"
        },
        {
          "internalType": "uint256",
          "name": "_fungicideLimit",
          "type": "uint256"
        }
      ],
      "name": "setFungicideLimit",
      "outputs": [
        {
          "internalType": "bool",
          "name": "success",
          "type": "bool"
        }
      ],
      "stateMutability": "nonpayable",
      "type": "function"
    },
    {
      "inputs": [
        {
          "internalType": "address",
          "name": "_farm",
          "type": "address"
        },
        {
          "internalType": "uint256",
          "name": "_herbicideLimit",
          "type": "uint256"
        }
      ],
      "name": "setHerbicideLimit",
      "outputs": [
        {
          "internalType": "bool",
          "name": "success",
          "type": "bool"
        }
      ],
      "stateMutability": "nonpayable",
      "type": "function"
    },
    {
      "inputs": [
        {
          "internalType": "address",
          "name": "_farm",
          "type": "address"
        },
        {
          "internalType": "uint256",
          "name": "_insecticideLimit",
          "type": "uint256"
        }
      ],
      "name": "setInsecticideLimit",
      "outputs": [
        {
          "internalType": "bool",
          "name": "success",
          "type": "bool"
        }
      ],
      "stateMutability": "nonpayable",
      "type": "function"
    },
    {
      "inputs": [],
      "name": "symbol",
      "outputs": [
        {
          "internalType": "string",
          "name": "",
          "type": "string"
        }
      ],
      "stateMutability": "view",
      "type": "function"
    },
    {
      "inputs": [],
      "name": "totalSupply",
      "outputs": [
        {
          "internalType": "uint256",
          "name": "",
          "type": "uint256"
        }
      ],
      "stateMutability": "view",
      "type": "function"
    },
    {
      "inputs": [
        {
          "internalType": "address",
          "name": "_to",
          "type": "address"
        },
        {
          "internalType": "uint256",
          "name": "_value",
          "type": "uint256"
        }
      ],
      "name": "transfer",
      "outputs": [
        {
          "internalType": "bool",
          "name": "success",
          "type": "bool"
        }
      ],
      "stateMutability": "nonpayable",
      "type": "function"
    },
    {
      "inputs": [
        {
          "internalType": "string",
          "name": "_brand",
          "type": "string"
        },
        {
          "internalType": "string",
          "name": "_location",
          "type": "string"
        },
        {
          "internalType": "uint256",
          "name": "_amount",
          "type": "uint256"
        },
        {
          "internalType": "uint256",
          "name": "_cropCount",
          "type": "uint256"
        },
        {
          "internalType": "string",
          "name": "_cropType",
          "type": "string"
        },
        {
          "internalType": "string",
          "name": "_timestamp",
          "type": "string"
        },
        {
          "internalType": "string",
          "name": "_imageLink",
          "type": "string"
        }
      ],
      "name": "useFertilizer",
      "outputs": [
        {
          "internalType": "bool",
          "name": "success",
          "type": "bool"
        }
      ],
      "stateMutability": "nonpayable",
      "type": "function"
    },
    {
      "inputs": [
        {
          "internalType": "string",
          "name": "_brand",
          "type": "string"
        },
        {
          "internalType": "string",
          "name": "_location",
          "type": "string"
        },
        {
          "internalType": "uint256",
          "name": "_amount",
          "type": "uint256"
        },
        {
          "internalType": "uint256",
          "name": "_cropCount",
          "type": "uint256"
        },
        {
          "internalType": "string",
          "name": "_cropType",
          "type": "string"
        },
        {
          "internalType": "string",
          "name": "_timestamp",
          "type": "string"
        },
        {
          "internalType": "string",
          "name": "_imageLink",
          "type": "string"
        },
        {
          "internalType": "string",
          "name": "_typeOfPesticide",
          "type": "string"
        }
      ],
      "name": "usePesticide",
      "outputs": [
        {
          "internalType": "bool",
          "name": "success",
          "type": "bool"
        }
      ],
      "stateMutability": "nonpayable",
      "type": "function"
    }
  ],
  "bytecode": "0x60806040526040518060400160405280600981526020017f43726f70546f6b656e00000000000000000000000000000000000000000000008152506000908161004891906103a0565b506040518060400160405280600281526020017f43540000000000000000000000000000000000000000000000000000000000008152506001908161008d91906103a0565b5034801561009a57600080fd5b5060405161382938038061382983398181016040528101906100bc91906104a3565b80600281905550600254600460003373ffffffffffffffffffffffffffffffffffffffff1673ffffffffffffffffffffffffffffffffffffffff1681526020019081526020016000208190555033600360006101000a81548173ffffffffffffffffffffffffffffffffffffffff021916908373ffffffffffffffffffffffffffffffffffffffff160217905550506104d0565b600081519050919050565b7f4e487b7100000000000000000000000000000000000000000000000000000000600052604160045260246000fd5b7f4e487b7100000000000000000000000000000000000000000000000000000000600052602260045260246000fd5b600060028204905060018216806101d157607f821691505b6020821081036101e4576101e361018a565b5b50919050565b60008190508160005260206000209050919050565b60006020601f8301049050919050565b600082821b905092915050565b60006008830261024c7fffffffffffffffffffffffffffffffffffffffffffffffffffffffffffffffff8261020f565b610256868361020f565b95508019841693508086168417925050509392505050565b6000819050919050565b6000819050919050565b600061029d6102986102938461026e565b610278565b61026e565b9050919050565b6000819050919050565b6102b783610282565b6102cb6102c3826102a4565b84845461021c565b825550505050565b600090565b6102e06102d3565b6102eb8184846102ae565b505050565b5b8181101561030f576103046000826102d8565b6001810190506102f1565b5050565b601f82111561035457610325816101ea565b61032e846101ff565b8101602085101561033d578190505b610351610349856101ff565b8301826102f0565b50505b505050565b600082821c905092915050565b600061037760001984600802610359565b1980831691505092915050565b60006103908383610366565b9150826002028217905092915050565b6103a982610150565b67ffffffffffffffff8111156103c2576103c161015b565b5b6103cc82546101b9565b6103d7828285610313565b600060209050601f83116001811461040a57600084156103f8578287015190505b6104028582610384565b86555061046a565b601f198416610418866101ea565b60005b828110156104405784890151825560018201915060208501945060208101905061041b565b8683101561045d5784890151610459601f891682610366565b8355505b6001600288020188555050505b505050505050565b600080fd5b6104808161026e565b811461048b57600080fd5b50565b60008151905061049d81610477565b92915050565b6000602082840312156104b9576104b8610472565b5b60006104c78482850161048e565b91505092915050565b61334a806104df6000396000f3fe608060405234801561001057600080fd5b50600436106101165760003560e01c806395d89b41116100a2578063b5bd9b3d11610071578063b5bd9b3d14610355578063d5d7ffcd14610385578063da6e6de6146103b5578063e492315d146103e5578063ee0446b21461041557610116565b806395d89b41146102a7578063a9059cbb146102c5578063b1012954146102f5578063b22fc96c1461032557610116565b80634a13385d116100e95780634a13385d146101b75780636c37f06b146101e757806370a082311461021757806386897ef9146102475780638f658f041461027757610116565b806306fdde031461011b578063095ea7b31461013957806318160ddd146101695780633b00a83014610187575b600080fd5b610123610445565b6040516101309190611c6e565b60405180910390f35b610153600480360381019061014e9190611d38565b6104d3565b6040516101609190611d93565b60405180910390f35b61017161077f565b60405161017e9190611dbd565b60405180910390f35b6101a1600480360381019061019c9190611dd8565b610785565b6040516101ae9190611dbd565b60405180910390f35b6101d160048036038101906101cc9190611dd8565b61079d565b6040516101de9190611dbd565b60405180910390f35b61020160048036038101906101fc9190611e05565b6107b5565b60405161020e9190611d93565b60405180910390f35b610231600480360381019061022c9190611dd8565b610a87565b60405161023e9190611dbd565b60405180910390f35b610261600480360381019061025c9190611d38565b610a9f565b60405161026e9190611d93565b60405180910390f35b610291600480360381019061028c9190611dd8565b610c51565b60405161029e9190611dbd565b60405180910390f35b6102af610c69565b6040516102bc9190611c6e565b60405180910390f35b6102df60048036038101906102da9190611d38565b610cf7565b6040516102ec9190611d93565b60405180910390f35b61030f600480360381019061030a9190611d38565b610ed9565b60405161031c9190611d93565b60405180910390f35b61033f600480360381019061033a9190611f8d565b61108b565b60405161034c9190611d93565b60405180910390f35b61036f600480360381019061036a91906120bb565b61134b565b60405161037c9190611d93565b60405180910390f35b61039f600480360381019061039a9190611d38565b61184a565b6040516103ac9190611d93565b60405180910390f35b6103cf60048036038101906103ca9190611dd8565b6119fc565b6040516103dc9190611dbd565b60405180910390f35b6103ff60048036038101906103fa9190611d38565b611a14565b60405161040c9190611d93565b60405180910390f35b61042f600480360381019061042a9190611dd8565b611bc6565b60405161043c9190611dbd565b60405180910390f35b6000805461045290612248565b80601f016020809104026020016040519081016040528092919081815260200182805461047e90612248565b80156104cb5780601f106104a0576101008083540402835291602001916104cb565b820191906000526020600020905b8154815290600101906020018083116104ae57829003601f168201915b505050505081565b600080821015610518576040517f08c379a000000000000000000000000000000000000000000000000000000000815260040161050f906122c5565b60405180910390fd5b600360009054906101000a900473ffffffffffffffffffffffffffffffffffffffff1673ffffffffffffffffffffffffffffffffffffffff163373ffffffffffffffffffffffffffffffffffffffff16146105a8576040517f08c379a000000000000000000000000000000000000000000000000000000000815260040161059f90612357565b60405180910390fd5b81600460003373ffffffffffffffffffffffffffffffffffffffff1673ffffffffffffffffffffffffffffffffffffffff16815260200190815260200160002054101561062a576040517f08c379a0000000000000000000000000000000000000000000000000000000008152600401610621906123c3565b60405180910390fd5b600360009054906101000a900473ffffffffffffffffffffffffffffffffffffffff1673ffffffffffffffffffffffffffffffffffffffff168373ffffffffffffffffffffffffffffffffffffffff16036106ba576040517f08c379a00000000000000000000000000000000000000000000000000000000081526004016106b190612455565b60405180910390fd5b81600560008573ffffffffffffffffffffffffffffffffffffffff1673ffffffffffffffffffffffffffffffffffffffff168152602001908152602001600020600082825461070991906124a4565b925050819055508273ffffffffffffffffffffffffffffffffffffffff163373ffffffffffffffffffffffffffffffffffffffff167f8c5be1e5ebec7d5bd14f71427d1e84f3dd0314c0f7b2291e5b200ac8c7c3b9258460405161076d9190611dbd565b60405180910390a36001905092915050565b60025481565b60086020528060005260406000206000915090505481565b60076020528060005260406000206000915090505481565b6000808210156107fa576040517f08c379a00000000000000000000000000000000000000000000000000000000081526004016107f190612524565b60405180910390fd5b600560003373ffffffffffffffffffffffffffffffffffffffff1673ffffffffffffffffffffffffffffffffffffffff1681526020019081526020016000205482111561087c576040517f08c379a0000000000000000000000000000000000000000000000000000000008152600401610873906125b6565b60405180910390fd5b81600460008673ffffffffffffffffffffffffffffffffffffffff1673ffffffffffffffffffffffffffffffffffffffff1681526020019081526020016000205410156108fe576040517f08c379a00000000000000000000000000000000000000000000000000000000081526004016108f5906123c3565b60405180910390fd5b81600460008673ffffffffffffffffffffffffffffffffffffffff1673ffffffffffffffffffffffffffffffffffffffff168152602001908152602001600020600082825461094d91906125d6565b9250508190555081600460008573ffffffffffffffffffffffffffffffffffffffff1673ffffffffffffffffffffffffffffffffffffffff16815260200190815260200160002060008282546109a391906124a4565b9250508190555081600560003373ffffffffffffffffffffffffffffffffffffffff1673ffffffffffffffffffffffffffffffffffffffff16815260200190815260200160002060008282546109f991906125d6565b925050819055503373ffffffffffffffffffffffffffffffffffffffff168373ffffffffffffffffffffffffffffffffffffffff168573ffffffffffffffffffffffffffffffffffffffff167f254d550bc4358b4095d41e54422cf3053aec5e46dcc029184856bfd36fa820ee85604051610a749190611dbd565b60405180910390a4600190509392505050565b60046020528060005260406000206000915090505481565b6000600360009054906101000a900473ffffffffffffffffffffffffffffffffffffffff1673ffffffffffffffffffffffffffffffffffffffff163373ffffffffffffffffffffffffffffffffffffffff1614610b31576040517f08c379a0000000000000000000000000000000000000000000000000000000008152600401610b289061267c565b60405180910390fd5b60008211610b74576040517f08c379a0000000000000000000000000000000000000000000000000000000008152600401610b6b9061270e565b60405180910390fd5b81600760008573ffffffffffffffffffffffffffffffffffffffff1673ffffffffffffffffffffffffffffffffffffffff168152602001908152602001600020819055508273ffffffffffffffffffffffffffffffffffffffff167f447439e0b2d534115dc4f45199b2ac2476d275605c303f3d447979e3636245ba600760008673ffffffffffffffffffffffffffffffffffffffff1673ffffffffffffffffffffffffffffffffffffffff1681526020019081526020016000205484604051610c3f92919061272e565b60405180910390a26001905092915050565b60066020528060005260406000206000915090505481565b60018054610c7690612248565b80601f0160208091040260200160405190810160405280929190818152602001828054610ca290612248565b8015610cef5780601f10610cc457610100808354040283529160200191610cef565b820191906000526020600020905b815481529060010190602001808311610cd257829003601f168201915b505050505081565b600080821015610d3c576040517f08c379a0000000000000000000000000000000000000000000000000000000008152600401610d3390612524565b60405180910390fd5b81600460003373ffffffffffffffffffffffffffffffffffffffff1673ffffffffffffffffffffffffffffffffffffffff168152602001908152602001600020541015610dbe576040517f08c379a0000000000000000000000000000000000000000000000000000000008152600401610db5906123c3565b60405180910390fd5b81600460003373ffffffffffffffffffffffffffffffffffffffff1673ffffffffffffffffffffffffffffffffffffffff1681526020019081526020016000206000828254610e0d91906125d6565b9250508190555081600460008573ffffffffffffffffffffffffffffffffffffffff1673ffffffffffffffffffffffffffffffffffffffff1681526020019081526020016000206000828254610e6391906124a4565b925050819055508273ffffffffffffffffffffffffffffffffffffffff163373ffffffffffffffffffffffffffffffffffffffff167fddf252ad1be2c89b69c2b068fc378daa952ba7f163c4a11628f55a4df523b3ef84604051610ec79190611dbd565b60405180910390a36001905092915050565b6000600360009054906101000a900473ffffffffffffffffffffffffffffffffffffffff1673ffffffffffffffffffffffffffffffffffffffff163373ffffffffffffffffffffffffffffffffffffffff1614610f6b576040517f08c379a0000000000000000000000000000000000000000000000000000000008152600401610f62906127c9565b60405180910390fd5b60008211610fae576040517f08c379a0000000000000000000000000000000000000000000000000000000008152600401610fa59061285b565b60405180910390fd5b81600660008573ffffffffffffffffffffffffffffffffffffffff1673ffffffffffffffffffffffffffffffffffffffff168152602001908152602001600020819055508273ffffffffffffffffffffffffffffffffffffffff167f8cf7e5349b4154958b54cd8b43d51be16a471325e9ab08e4beffdf4f449b69c6600660008673ffffffffffffffffffffffffffffffffffffffff1673ffffffffffffffffffffffffffffffffffffffff168152602001908152602001600020548460405161107992919061272e565b60405180910390a26001905092915050565b6000808851116110d0576040517f08c379a00000000000000000000000000000000000000000000000000000000081526004016110c7906128c7565b60405180910390fd5b6000875111611114576040517f08c379a000000000000000000000000000000000000000000000000000000000815260040161110b90612959565b60405180910390fd5b6000845111611158576040517f08c379a000000000000000000000000000000000000000000000000000000000815260040161114f906129eb565b60405180910390fd5b6000861161119b576040517f08c379a000000000000000000000000000000000000000000000000000000000815260040161119290612a7d565b60405180910390fd5b600660003373ffffffffffffffffffffffffffffffffffffffff1673ffffffffffffffffffffffffffffffffffffffff1681526020019081526020016000205486111561121d576040517f08c379a000000000000000000000000000000000000000000000000000000000815260040161121490612b0f565b60405180910390fd5b60008511611260576040517f08c379a000000000000000000000000000000000000000000000000000000000815260040161125790612ba1565b60405180910390fd5b60006040518060e001604052808a815260200189815260200188815260200187815260200186815260200185815260200184815250905086600660003373ffffffffffffffffffffffffffffffffffffffff1673ffffffffffffffffffffffffffffffffffffffff16815260200190815260200160002060008282546112e691906125d6565b925050819055503373ffffffffffffffffffffffffffffffffffffffff167fbe57836134934b347d6fa48010404172fa8920828e05d1107968db1baca77818826040516113339190612cd2565b60405180910390a26001915050979650505050505050565b600080895111611390576040517f08c379a000000000000000000000000000000000000000000000000000000000815260040161138790612d40565b60405180910390fd5b60008851116113d4576040517f08c379a00000000000000000000000000000000000000000000000000000000081526004016113cb90612dd2565b60405180910390fd5b6000855111611418576040517f08c379a000000000000000000000000000000000000000000000000000000000815260040161140f90612e64565b60405180910390fd5b600082511161145c576040517f08c379a000000000000000000000000000000000000000000000000000000000815260040161145390612ef6565b60405180910390fd5b6000871161149f576040517f08c379a000000000000000000000000000000000000000000000000000000000815260040161149690612f88565b60405180910390fd5b600086116114e2576040517f08c379a00000000000000000000000000000000000000000000000000000000081526004016114d99061301a565b60405180910390fd5b60006040518060e001604052808b81526020018a81526020018981526020018881526020018781526020018681526020018581525090506040518060400160405280600981526020017f46756e67696369646500000000000000000000000000000000000000000000008152508051906020012083805190602001200361160c5787600760003373ffffffffffffffffffffffffffffffffffffffff1673ffffffffffffffffffffffffffffffffffffffff16815260200190815260200160002060008282546115b291906125d6565b925050819055503373ffffffffffffffffffffffffffffffffffffffff167ffacb8fbbcd67d9fc3782e462531fcff9b056a61d4bdfe66bde6c67de6ddd4dde826040516115ff9190612cd2565b60405180910390a2611839565b6040518060400160405280600b81526020017f496e736563746963696465000000000000000000000000000000000000000000815250805190602001208380519060200120036116ff5787600860003373ffffffffffffffffffffffffffffffffffffffff1673ffffffffffffffffffffffffffffffffffffffff16815260200190815260200160002060008282546116a591906125d6565b925050819055503373ffffffffffffffffffffffffffffffffffffffff167f321765a8ba48eef79d7f62ccd7d9805469921a91ba9c544d616274c00d74efce826040516116f29190612cd2565b60405180910390a2611838565b6040518060400160405280600981526020017f4865726269636964650000000000000000000000000000000000000000000000815250805190602001208380519060200120036117f25787600960003373ffffffffffffffffffffffffffffffffffffffff1673ffffffffffffffffffffffffffffffffffffffff168152602001908152602001600020600082825461179891906125d6565b925050819055503373ffffffffffffffffffffffffffffffffffffffff167f25fce38c936fc8a7693a7f92367f00e75c42cd4ea4aa2ac6733e6be4806b4dcb826040516117e59190612cd2565b60405180910390a2611837565b6000600114611836576040517f08c379a000000000000000000000000000000000000000000000000000000000815260040161182d906130ac565b60405180910390fd5b5b5b5b600191505098975050505050505050565b6000600360009054906101000a900473ffffffffffffffffffffffffffffffffffffffff1673ffffffffffffffffffffffffffffffffffffffff163373ffffffffffffffffffffffffffffffffffffffff16146118dc576040517f08c379a00000000000000000000000000000000000000000000000000000000081526004016118d39061313e565b60405180910390fd5b6000821161191f576040517f08c379a0000000000000000000000000000000000000000000000000000000008152600401611916906131d0565b60405180910390fd5b81600860008573ffffffffffffffffffffffffffffffffffffffff1673ffffffffffffffffffffffffffffffffffffffff168152602001908152602001600020819055508273ffffffffffffffffffffffffffffffffffffffff167fde8c6273e068c25111b47cf2f04c6fbae55df994c9902840043c8766d5fc6f93600860008673ffffffffffffffffffffffffffffffffffffffff1673ffffffffffffffffffffffffffffffffffffffff16815260200190815260200160002054846040516119ea92919061272e565b60405180910390a26001905092915050565b60096020528060005260406000206000915090505481565b6000600360009054906101000a900473ffffffffffffffffffffffffffffffffffffffff1673ffffffffffffffffffffffffffffffffffffffff163373ffffffffffffffffffffffffffffffffffffffff1614611aa6576040517f08c379a0000000000000000000000000000000000000000000000000000000008152600401611a9d90613262565b60405180910390fd5b60008211611ae9576040517f08c379a0000000000000000000000000000000000000000000000000000000008152600401611ae0906132f4565b60405180910390fd5b81600960008573ffffffffffffffffffffffffffffffffffffffff1673ffffffffffffffffffffffffffffffffffffffff168152602001908152602001600020819055508273ffffffffffffffffffffffffffffffffffffffff167f66cff483acbd5195f20e47891d26ec9ad0acc52af26d42457ba5a764a8bd8cc9600960008673ffffffffffffffffffffffffffffffffffffffff1673ffffffffffffffffffffffffffffffffffffffff1681526020019081526020016000205484604051611bb492919061272e565b60405180910390a26001905092915050565b60056020528060005260406000206000915090505481565b600081519050919050565b600082825260208201905092915050565b60005b83811015611c18578082015181840152602081019050611bfd565b60008484015250505050565b6000601f19601f8301169050919050565b6000611c4082611bde565b611c4a8185611be9565b9350611c5a818560208601611bfa565b611c6381611c24565b840191505092915050565b60006020820190508181036000830152611c888184611c35565b905092915050565b6000604051905090565b600080fd5b600080fd5b600073ffffffffffffffffffffffffffffffffffffffff82169050919050565b6000611ccf82611ca4565b9050919050565b611cdf81611cc4565b8114611cea57600080fd5b50565b600081359050611cfc81611cd6565b92915050565b6000819050919050565b611d1581611d02565b8114611d2057600080fd5b50565b600081359050611d3281611d0c565b92915050565b60008060408385031215611d4f57611d4e611c9a565b5b6000611d5d85828601611ced565b9250506020611d6e85828601611d23565b9150509250929050565b60008115159050919050565b611d8d81611d78565b82525050565b6000602082019050611da86000830184611d84565b92915050565b611db781611d02565b82525050565b6000602082019050611dd26000830184611dae565b92915050565b600060208284031215611dee57611ded611c9a565b5b6000611dfc84828501611ced565b91505092915050565b600080600060608486031215611e1e57611e1d611c9a565b5b6000611e2c86828701611ced565b9350506020611e3d86828701611ced565b9250506040611e4e86828701611d23565b9150509250925092565b600080fd5b600080fd5b7f4e487b7100000000000000000000000000000000000000000000000000000000600052604160045260246000fd5b611e9a82611c24565b810181811067ffffffffffffffff82111715611eb957611eb8611e62565b5b80604052505050565b6000611ecc611c90565b9050611ed88282611e91565b919050565b600067ffffffffffffffff821115611ef857611ef7611e62565b5b611f0182611c24565b9050602081019050919050565b82818337600083830152505050565b6000611f30611f2b84611edd565b611ec2565b905082815260208101848484011115611f4c57611f4b611e5d565b5b611f57848285611f0e565b509392505050565b600082601f830112611f7457611f73611e58565b5b8135611f84848260208601611f1d565b91505092915050565b600080600080600080600060e0888a031215611fac57611fab611c9a565b5b600088013567ffffffffffffffff811115611fca57611fc9611c9f565b5b611fd68a828b01611f5f565b975050602088013567ffffffffffffffff811115611ff757611ff6611c9f565b5b6120038a828b01611f5f565b96505060406120148a828b01611d23565b95505060606120258a828b01611d23565b945050608088013567ffffffffffffffff81111561204657612045611c9f565b5b6120528a828b01611f5f565b93505060a088013567ffffffffffffffff81111561207357612072611c9f565b5b61207f8a828b01611f5f565b92505060c088013567ffffffffffffffff8111156120a05761209f611c9f565b5b6120ac8a828b01611f5f565b91505092959891949750929550565b600080600080600080600080610100898b0312156120dc576120db611c9a565b5b600089013567ffffffffffffffff8111156120fa576120f9611c9f565b5b6121068b828c01611f5f565b985050602089013567ffffffffffffffff81111561212757612126611c9f565b5b6121338b828c01611f5f565b97505060406121448b828c01611d23565b96505060606121558b828c01611d23565b955050608089013567ffffffffffffffff81111561217657612175611c9f565b5b6121828b828c01611f5f565b94505060a089013567ffffffffffffffff8111156121a3576121a2611c9f565b5b6121af8b828c01611f5f565b93505060c089013567ffffffffffffffff8111156121d0576121cf611c9f565b5b6121dc8b828c01611f5f565b92505060e089013567ffffffffffffffff8111156121fd576121fc611c9f565b5b6122098b828c01611f5f565b9150509295985092959890939650565b7f4e487b7100000000000000000000000000000000000000000000000000000000600052602260045260246000fd5b6000600282049050600182168061226057607f821691505b60208210810361227357612272612219565b5b50919050565b7f43616e6e6f7420617070726f7665206e65676174697665204d544b0000000000600082015250565b60006122af601b83611be9565b91506122ba82612279565b602082019050919050565b600060208201905081810360008301526122de816122a2565b9050919050565b7f596f7520646f206e6f742068617665207065726d697373696f6e20746f20617060008201527f70726f7665000000000000000000000000000000000000000000000000000000602082015250565b6000612341602583611be9565b915061234c826122e5565b604082019050919050565b6000602082019050818103600083015261237081612334565b9050919050565b7f496e73756666696369656e742062616c616e6365000000000000000000000000600082015250565b60006123ad601483611be9565b91506123b882612377565b602082019050919050565b600060208201905081810360008301526123dc816123a0565b9050919050565b7f596f7520646f206e6f74206e65656420617070726f76616c20746f2073656e6460008201527f20746f6b656e7300000000000000000000000000000000000000000000000000602082015250565b600061243f602783611be9565b915061244a826123e3565b604082019050919050565b6000602082019050818103600083015261246e81612432565b9050919050565b7f4e487b7100000000000000000000000000000000000000000000000000000000600052601160045260246000fd5b60006124af82611d02565b91506124ba83611d02565b92508282019050808211156124d2576124d1612475565b5b92915050565b7f43616e6e6f74207472616e73666572206e65676174697665204d544b00000000600082015250565b600061250e601c83611be9565b9150612519826124d8565b602082019050919050565b6000602082019050818103600083015261253d81612501565b9050919050565b7f596f7520617265206e6f7420617070726f76656420746f207472616e7366657260008201527f2074686174206d75636800000000000000000000000000000000000000000000602082015250565b60006125a0602a83611be9565b91506125ab82612544565b604082019050919050565b600060208201905081810360008301526125cf81612593565b9050919050565b60006125e182611d02565b91506125ec83611d02565b925082820390508181111561260457612603612475565b5b92915050565b7f596f7520646f206e6f742068617665207065726d697373696f6e20746f20736560008201527f74207468652066756e676963696465206c696d69740000000000000000000000602082015250565b6000612666603583611be9565b91506126718261260a565b604082019050919050565b6000602082019050818103600083015261269581612659565b9050919050565b7f416d6f756e7420746f2061646420746f2066756e676963696465206c696d697460008201527f206d7573742062652067726561746572207468616e2030000000000000000000602082015250565b60006126f8603783611be9565b91506127038261269c565b604082019050919050565b60006020820190508181036000830152612727816126eb565b9050919050565b60006040820190506127436000830185611dae565b6127506020830184611dae565b9392505050565b7f596f7520646f206e6f742068617665207065726d697373696f6e20746f20736560008201527f74207468652066657274696c697a6572206c696d697400000000000000000000602082015250565b60006127b3603683611be9565b91506127be82612757565b604082019050919050565b600060208201905081810360008301526127e2816127a6565b9050919050565b7f416d6f756e7420746f2061646420746f2066657274696c697a6572206c696d6960008201527f74206d7573742062652067726561746572207468616e20300000000000000000602082015250565b6000612845603883611be9565b9150612850826127e9565b604082019050919050565b6000602082019050818103600083015261287481612838565b9050919050565b7f46657274696c697a6572206272616e64206d75737420626520676976656e0000600082015250565b60006128b1601e83611be9565b91506128bc8261287b565b602082019050919050565b600060208201905081810360008301526128e0816128a4565b9050919050565b7f4c6f636174696f6e2077686572652066657274696c697a65722077617320757360008201527f6564206d75737420626520676976656e00000000000000000000000000000000602082015250565b6000612943603083611be9565b915061294e826128e7565b604082019050919050565b6000602082019050818103600083015261297281612936565b9050919050565b7f43726f702074797065206f6e2077686963682066657274696c697a657220776160008201527f732075736564206d75737420626520676976656e000000000000000000000000602082015250565b60006129d5603483611be9565b91506129e082612979565b604082019050919050565b60006020820190508181036000830152612a04816129c8565b9050919050565b7f416d6f756e74206f662066657274696c697a65722075736564206d757374206260008201527f6520676976656e00000000000000000000000000000000000000000000000000602082015250565b6000612a67602783611be9565b9150612a7282612a0b565b604082019050919050565b60006020820190508181036000830152612a9681612a5a565b9050919050565b7f596f752063616e6e6f74207573652074686174206d7563682066657274696c6960008201527f7a65720000000000000000000000000000000000000000000000000000000000602082015250565b6000612af9602383611be9565b9150612b0482612a9d565b604082019050919050565b60006020820190508181036000830152612b2881612aec565b9050919050565b7f4e756d626572206f662063726f70732066657274696c697a657220776173207560008201527f736564206f6e206d75737420626520676976656e000000000000000000000000602082015250565b6000612b8b603483611be9565b9150612b9682612b2f565b604082019050919050565b60006020820190508181036000830152612bba81612b7e565b9050919050565b600082825260208201905092915050565b6000612bdd82611bde565b612be78185612bc1565b9350612bf7818560208601611bfa565b612c0081611c24565b840191505092915050565b612c1481611d02565b82525050565b600060e0830160008301518482036000860152612c378282612bd2565b91505060208301518482036020860152612c518282612bd2565b9150506040830151612c666040860182612c0b565b506060830151612c796060860182612c0b565b5060808301518482036080860152612c918282612bd2565b91505060a083015184820360a0860152612cab8282612bd2565b91505060c083015184820360c0860152612cc58282612bd2565b9150508091505092915050565b60006020820190508181036000830152612cec8184612c1a565b905092915050565b7f506573746963696465206272616e64206d75737420626520676976656e000000600082015250565b6000612d2a601d83611be9565b9150612d3582612cf4565b602082019050919050565b60006020820190508181036000830152612d5981612d1d565b9050919050565b7f4c6f636174696f6e20776865726520706573746963696465207761732075736560008201527f64206d75737420626520676976656e0000000000000000000000000000000000602082015250565b6000612dbc602f83611be9565b9150612dc782612d60565b604082019050919050565b60006020820190508181036000830152612deb81612daf565b9050919050565b7f43726f702074797065206f6e207768696368207065737469636964652077617360008201527f2075736564206d75737420626520676976656e00000000000000000000000000602082015250565b6000612e4e603383611be9565b9150612e5982612df2565b604082019050919050565b60006020820190508181036000830152612e7d81612e41565b9050919050565b7f54797065206f6620706573746963696465207761732075736564206d7573742060008201527f626520676976656e000000000000000000000000000000000000000000000000602082015250565b6000612ee0602883611be9565b9150612eeb82612e84565b604082019050919050565b60006020820190508181036000830152612f0f81612ed3565b9050919050565b7f416d6f756e74206f66207065737469636964652075736564206d75737420626560008201527f20676976656e0000000000000000000000000000000000000000000000000000602082015250565b6000612f72602683611be9565b9150612f7d82612f16565b604082019050919050565b60006020820190508181036000830152612fa181612f65565b9050919050565b7f4e756d626572206f662063726f7073207065737469636964652077617320757360008201527f6564206f6e206d75737420626520676976656e00000000000000000000000000602082015250565b6000613004603383611be9565b915061300f82612fa8565b604082019050919050565b6000602082019050818103600083015261303381612ff7565b9050919050565b7f506573746963696465206d75737420626520612066756e6769636964652c206960008201527f6e7365637469636964652c206f72206865726269636964650000000000000000602082015250565b6000613096603883611be9565b91506130a18261303a565b604082019050919050565b600060208201905081810360008301526130c581613089565b9050919050565b7f596f7520646f206e6f742068617665207065726d697373696f6e20746f20736560008201527f742074686520696e736563746963696465206c696d6974000000000000000000602082015250565b6000613128603783611be9565b9150613133826130cc565b604082019050919050565b600060208201905081810360008301526131578161311b565b9050919050565b7f416d6f756e7420746f2061646420746f20696e736563746963696465206c696d60008201527f6974206d7573742062652067726561746572207468616e203000000000000000602082015250565b60006131ba603983611be9565b91506131c58261315e565b604082019050919050565b600060208201905081810360008301526131e9816131ad565b9050919050565b7f596f7520646f206e6f742068617665207065726d697373696f6e20746f20736560008201527f742074686520686572626963696465206c696d69740000000000000000000000602082015250565b600061324c603583611be9565b9150613257826131f0565b604082019050919050565b6000602082019050818103600083015261327b8161323f565b9050919050565b7f416d6f756e7420746f2061646420746f20686572626963696465206c696d697460008201527f206d7573742062652067726561746572207468616e2030000000000000000000602082015250565b60006132de603783611be9565b91506132e982613282565b604082019050919050565b6000602082019050818103600083015261330d816132d1565b905091905056fea2646970667358221220009117e6da8cc777c1c9e287be14af0bbc4c5932635d7a1a2cb952b41691fa1964736f6c634300081b0033",
  "linkReferences": {},
  "deployedLinkReferences": {}
}