{
  "_format": "hh-sol-artifact-1",
  "contractName": "CropToken",
  "sourceName": "contracts/FarmChemicalContract.sol",
  "abi": [
    {
      "inputs": [
        {
          "internalType": "uint256",
          "name": "_initialSupply",
          "type": "uint256"
        }
      ],
      "stateMutability": "nonpayable",
      "type": "constructor"
    },
    {
      "anonymous": false,
      "inputs": [
        {
          "indexed": true,
          "internalType": "address",
          "name": "sender",
          "type": "address"
        },
        {
          "indexed": true,
          "internalType": "address",
          "name": "spender",
          "type": "address"
        },
        {
          "indexed": false,
          "internalType": "uint256",
          "name": "value",
          "type": "uint256"
        }
      ],
      "name": "Approval",
      "type": "event"
    },
    {
      "anonymous": false,
      "inputs": [
        {
          "indexed": true,
          "internalType": "address",
          "name": "from",
          "type": "address"
        },
        {
          "indexed": true,
          "internalType": "address",
          "name": "to",
          "type": "address"
        },
        {
          "indexed": true,
          "internalType": "address",
          "name": "sender",
          "type": "address"
        },
        {
          "indexed": false,
          "internalType": "uint256",
          "name": "value",
          "type": "uint256"
        }
      ],
      "name": "ApprovedTransfer",
      "type": "event"
    },
    {
      "anonymous": false,
      "inputs": [
        {
          "indexed": true,
          "internalType": "address",
          "name": "from",
          "type": "address"
        },
        {
          "components": [
            {
              "internalType": "string",
              "name": "chemicalType",
              "type": "string"
            },
            {
              "internalType": "string",
              "name": "locationUsed",
              "type": "string"
            },
            {
              "internalType": "int256",
              "name": "amountUsed",
              "type": "int256"
            },
            {
              "internalType": "uint256",
              "name": "cropCount",
              "type": "uint256"
            },
            {
              "internalType": "string",
              "name": "cropType",
              "type": "string"
            },
            {
              "internalType": "string",
              "name": "timestamp",
              "type": "string"
            },
            {
              "internalType": "string",
              "name": "imageLink",
              "type": "string"
            }
          ],
          "indexed": false,
          "internalType": "struct CropToken.Chemical",
          "name": "fertilizer",
          "type": "tuple"
        }
      ],
      "name": "Fertilizer",
      "type": "event"
    },
    {
      "anonymous": false,
      "inputs": [
        {
          "indexed": true,
          "internalType": "address",
          "name": "from",
          "type": "address"
        },
        {
          "components": [
            {
              "components": [
                {
                  "internalType": "string",
                  "name": "chemicalType",
                  "type": "string"
                },
                {
                  "internalType": "string",
                  "name": "locationUsed",
                  "type": "string"
                },
                {
                  "internalType": "int256",
                  "name": "amountUsed",
                  "type": "int256"
                },
                {
                  "internalType": "uint256",
                  "name": "cropCount",
                  "type": "uint256"
                },
                {
                  "internalType": "string",
                  "name": "cropType",
                  "type": "string"
                },
                {
                  "internalType": "string",
                  "name": "timestamp",
                  "type": "string"
                },
                {
                  "internalType": "string",
                  "name": "imageLink",
                  "type": "string"
                }
              ],
              "internalType": "struct CropToken.Chemical",
              "name": "chemical",
              "type": "tuple"
            },
            {
              "internalType": "uint256",
              "name": "timesRun",
              "type": "uint256"
            },
            {
              "internalType": "string",
              "name": "startTime",
              "type": "string"
            },
            {
              "internalType": "string",
              "name": "endTime",
              "type": "string"
            }
          ],
          "indexed": false,
          "internalType": "struct CropToken.ChemicalBulk",
          "name": "fertilizer",
          "type": "tuple"
        }
      ],
      "name": "FertilizerBulk",
      "type": "event"
    },
    {
      "anonymous": false,
      "inputs": [
        {
          "indexed": true,
          "internalType": "address",
          "name": "farm",
          "type": "address"
        },
        {
          "indexed": false,
          "internalType": "int256",
          "name": "fertilizerLimit",
          "type": "int256"
        },
        {
          "indexed": false,
          "internalType": "int256",
          "name": "addedAmount",
          "type": "int256"
        }
      ],
      "name": "FertilizerLimit",
      "type": "event"
    },
    {
      "anonymous": false,
      "inputs": [
        {
          "indexed": true,
          "internalType": "address",
          "name": "from",
          "type": "address"
        },
        {
          "components": [
            {
              "internalType": "string",
              "name": "chemicalType",
              "type": "string"
            },
            {
              "internalType": "string",
              "name": "locationUsed",
              "type": "string"
            },
            {
              "internalType": "int256",
              "name": "amountUsed",
              "type": "int256"
            },
            {
              "internalType": "uint256",
              "name": "cropCount",
              "type": "uint256"
            },
            {
              "internalType": "string",
              "name": "cropType",
              "type": "string"
            },
            {
              "internalType": "string",
              "name": "timestamp",
              "type": "string"
            },
            {
              "internalType": "string",
              "name": "imageLink",
              "type": "string"
            }
          ],
          "indexed": false,
          "internalType": "struct CropToken.Chemical",
          "name": "fungicide",
          "type": "tuple"
        }
      ],
      "name": "Fungicide",
      "type": "event"
    },
    {
      "anonymous": false,
      "inputs": [
        {
          "indexed": true,
          "internalType": "address",
          "name": "from",
          "type": "address"
        },
        {
          "components": [
            {
              "components": [
                {
                  "internalType": "string",
                  "name": "chemicalType",
                  "type": "string"
                },
                {
                  "internalType": "string",
                  "name": "locationUsed",
                  "type": "string"
                },
                {
                  "internalType": "int256",
                  "name": "amountUsed",
                  "type": "int256"
                },
                {
                  "internalType": "uint256",
                  "name": "cropCount",
                  "type": "uint256"
                },
                {
                  "internalType": "string",
                  "name": "cropType",
                  "type": "string"
                },
                {
                  "internalType": "string",
                  "name": "timestamp",
                  "type": "string"
                },
                {
                  "internalType": "string",
                  "name": "imageLink",
                  "type": "string"
                }
              ],
              "internalType": "struct CropToken.Chemical",
              "name": "chemical",
              "type": "tuple"
            },
            {
              "internalType": "uint256",
              "name": "timesRun",
              "type": "uint256"
            },
            {
              "internalType": "string",
              "name": "startTime",
              "type": "string"
            },
            {
              "internalType": "string",
              "name": "endTime",
              "type": "string"
            }
          ],
          "indexed": false,
          "internalType": "struct CropToken.ChemicalBulk",
          "name": "fungicide",
          "type": "tuple"
        }
      ],
      "name": "FungicideBulk",
      "type": "event"
    },
    {
      "anonymous": false,
      "inputs": [
        {
          "indexed": true,
          "internalType": "address",
          "name": "farm",
          "type": "address"
        },
        {
          "indexed": false,
          "internalType": "int256",
          "name": "fungicideLimit",
          "type": "int256"
        },
        {
          "indexed": false,
          "internalType": "int256",
          "name": "addedAmount",
          "type": "int256"
        }
      ],
      "name": "FungicideLimit",
      "type": "event"
    },
    {
      "anonymous": false,
      "inputs": [
        {
          "indexed": true,
          "internalType": "address",
          "name": "from",
          "type": "address"
        },
        {
          "components": [
            {
              "internalType": "string",
              "name": "chemicalType",
              "type": "string"
            },
            {
              "internalType": "string",
              "name": "locationUsed",
              "type": "string"
            },
            {
              "internalType": "int256",
              "name": "amountUsed",
              "type": "int256"
            },
            {
              "internalType": "uint256",
              "name": "cropCount",
              "type": "uint256"
            },
            {
              "internalType": "string",
              "name": "cropType",
              "type": "string"
            },
            {
              "internalType": "string",
              "name": "timestamp",
              "type": "string"
            },
            {
              "internalType": "string",
              "name": "imageLink",
              "type": "string"
            }
          ],
          "indexed": false,
          "internalType": "struct CropToken.Chemical",
          "name": "herbicide",
          "type": "tuple"
        }
      ],
      "name": "Herbicide",
      "type": "event"
    },
    {
      "anonymous": false,
      "inputs": [
        {
          "indexed": true,
          "internalType": "address",
          "name": "from",
          "type": "address"
        },
        {
          "components": [
            {
              "components": [
                {
                  "internalType": "string",
                  "name": "chemicalType",
                  "type": "string"
                },
                {
                  "internalType": "string",
                  "name": "locationUsed",
                  "type": "string"
                },
                {
                  "internalType": "int256",
                  "name": "amountUsed",
                  "type": "int256"
                },
                {
                  "internalType": "uint256",
                  "name": "cropCount",
                  "type": "uint256"
                },
                {
                  "internalType": "string",
                  "name": "cropType",
                  "type": "string"
                },
                {
                  "internalType": "string",
                  "name": "timestamp",
                  "type": "string"
                },
                {
                  "internalType": "string",
                  "name": "imageLink",
                  "type": "string"
                }
              ],
              "internalType": "struct CropToken.Chemical",
              "name": "chemical",
              "type": "tuple"
            },
            {
              "internalType": "uint256",
              "name": "timesRun",
              "type": "uint256"
            },
            {
              "internalType": "string",
              "name": "startTime",
              "type": "string"
            },
            {
              "internalType": "string",
              "name": "endTime",
              "type": "string"
            }
          ],
          "indexed": false,
          "internalType": "struct CropToken.ChemicalBulk",
          "name": "herbicide",
          "type": "tuple"
        }
      ],
      "name": "HerbicideBulk",
      "type": "event"
    },
    {
      "anonymous": false,
      "inputs": [
        {
          "indexed": true,
          "internalType": "address",
          "name": "farm",
          "type": "address"
        },
        {
          "indexed": false,
          "internalType": "int256",
          "name": "herbicideLimit",
          "type": "int256"
        },
        {
          "indexed": false,
          "internalType": "int256",
          "name": "addedAmount",
          "type": "int256"
        }
      ],
      "name": "HerbicideLimit",
      "type": "event"
    },
    {
      "anonymous": false,
      "inputs": [
        {
          "indexed": true,
          "internalType": "address",
          "name": "from",
          "type": "address"
        },
        {
          "components": [
            {
              "internalType": "string",
              "name": "chemicalType",
              "type": "string"
            },
            {
              "internalType": "string",
              "name": "locationUsed",
              "type": "string"
            },
            {
              "internalType": "int256",
              "name": "amountUsed",
              "type": "int256"
            },
            {
              "internalType": "uint256",
              "name": "cropCount",
              "type": "uint256"
            },
            {
              "internalType": "string",
              "name": "cropType",
              "type": "string"
            },
            {
              "internalType": "string",
              "name": "timestamp",
              "type": "string"
            },
            {
              "internalType": "string",
              "name": "imageLink",
              "type": "string"
            }
          ],
          "indexed": false,
          "internalType": "struct CropToken.Chemical",
          "name": "insecticide",
          "type": "tuple"
        }
      ],
      "name": "Insecticide",
      "type": "event"
    },
    {
      "anonymous": false,
      "inputs": [
        {
          "indexed": true,
          "internalType": "address",
          "name": "from",
          "type": "address"
        },
        {
          "components": [
            {
              "components": [
                {
                  "internalType": "string",
                  "name": "chemicalType",
                  "type": "string"
                },
                {
                  "internalType": "string",
                  "name": "locationUsed",
                  "type": "string"
                },
                {
                  "internalType": "int256",
                  "name": "amountUsed",
                  "type": "int256"
                },
                {
                  "internalType": "uint256",
                  "name": "cropCount",
                  "type": "uint256"
                },
                {
                  "internalType": "string",
                  "name": "cropType",
                  "type": "string"
                },
                {
                  "internalType": "string",
                  "name": "timestamp",
                  "type": "string"
                },
                {
                  "internalType": "string",
                  "name": "imageLink",
                  "type": "string"
                }
              ],
              "internalType": "struct CropToken.Chemical",
              "name": "chemical",
              "type": "tuple"
            },
            {
              "internalType": "uint256",
              "name": "timesRun",
              "type": "uint256"
            },
            {
              "internalType": "string",
              "name": "startTime",
              "type": "string"
            },
            {
              "internalType": "string",
              "name": "endTime",
              "type": "string"
            }
          ],
          "indexed": false,
          "internalType": "struct CropToken.ChemicalBulk",
          "name": "insecticide",
          "type": "tuple"
        }
      ],
      "name": "InsecticideBulk",
      "type": "event"
    },
    {
      "anonymous": false,
      "inputs": [
        {
          "indexed": true,
          "internalType": "address",
          "name": "farm",
          "type": "address"
        },
        {
          "indexed": false,
          "internalType": "int256",
          "name": "insecticideLimit",
          "type": "int256"
        },
        {
          "indexed": false,
          "internalType": "int256",
          "name": "addedAmount",
          "type": "int256"
        }
      ],
      "name": "InsecticideLimit",
      "type": "event"
    },
    {
      "anonymous": false,
      "inputs": [
        {
          "indexed": true,
          "internalType": "address",
          "name": "from",
          "type": "address"
        },
        {
          "indexed": true,
          "internalType": "address",
          "name": "to",
          "type": "address"
        },
        {
          "indexed": false,
          "internalType": "uint256",
          "name": "value",
          "type": "uint256"
        }
      ],
      "name": "Transfer",
      "type": "event"
    },
    {
      "inputs": [
        {
          "internalType": "address",
          "name": "_from",
          "type": "address"
        },
        {
          "internalType": "address",
          "name": "_to",
          "type": "address"
        },
        {
          "internalType": "uint256",
          "name": "_value",
          "type": "uint256"
        }
      ],
      "name": "approvalTransfer",
      "outputs": [
        {
          "internalType": "bool",
          "name": "success",
          "type": "bool"
        }
      ],
      "stateMutability": "nonpayable",
      "type": "function"
    },
    {
      "inputs": [
        {
          "internalType": "address",
          "name": "_spender",
          "type": "address"
        },
        {
          "internalType": "uint256",
          "name": "_value",
          "type": "uint256"
        }
      ],
      "name": "approve",
      "outputs": [
        {
          "internalType": "bool",
          "name": "success",
          "type": "bool"
        }
      ],
      "stateMutability": "nonpayable",
      "type": "function"
    },
    {
      "inputs": [
        {
          "internalType": "address",
          "name": "",
          "type": "address"
        }
      ],
      "name": "approvedAmount",
      "outputs": [
        {
          "internalType": "uint256",
          "name": "",
          "type": "uint256"
        }
      ],
      "stateMutability": "view",
      "type": "function"
    },
    {
      "inputs": [
        {
          "internalType": "address",
          "name": "",
          "type": "address"
        }
      ],
      "name": "balanceOf",
      "outputs": [
        {
          "internalType": "uint256",
          "name": "",
          "type": "uint256"
        }
      ],
      "stateMutability": "view",
      "type": "function"
    },
    {
      "inputs": [
        {
          "internalType": "address",
          "name": "",
          "type": "address"
        }
      ],
      "name": "fertilizerLimit",
      "outputs": [
        {
          "internalType": "int256",
          "name": "",
          "type": "int256"
        }
      ],
      "stateMutability": "view",
      "type": "function"
    },
    {
      "inputs": [
        {
          "internalType": "address",
          "name": "",
          "type": "address"
        }
      ],
      "name": "fungicideLimit",
      "outputs": [
        {
          "internalType": "int256",
          "name": "",
          "type": "int256"
        }
      ],
      "stateMutability": "view",
      "type": "function"
    },
    {
      "inputs": [
        {
          "internalType": "address",
          "name": "",
          "type": "address"
        }
      ],
      "name": "herbicideLimit",
      "outputs": [
        {
          "internalType": "int256",
          "name": "",
          "type": "int256"
        }
      ],
      "stateMutability": "view",
      "type": "function"
    },
    {
      "inputs": [
        {
          "internalType": "address",
          "name": "",
          "type": "address"
        }
      ],
      "name": "insecticideLimit",
      "outputs": [
        {
          "internalType": "int256",
          "name": "",
          "type": "int256"
        }
      ],
      "stateMutability": "view",
      "type": "function"
    },
    {
      "inputs": [
        {
          "internalType": "address",
          "name": "addr",
          "type": "address"
        }
      ],
      "name": "isDeployer",
      "outputs": [
        {
          "internalType": "bool",
          "name": "dep",
          "type": "bool"
        }
      ],
      "stateMutability": "view",
      "type": "function"
    },
    {
      "inputs": [],
      "name": "name",
      "outputs": [
        {
          "internalType": "string",
          "name": "",
          "type": "string"
        }
      ],
      "stateMutability": "view",
      "type": "function"
    },
    {
      "inputs": [
        {
          "internalType": "address",
          "name": "_farm",
          "type": "address"
        },
        {
          "internalType": "int256",
          "name": "_fertilizerLimit",
          "type": "int256"
        }
      ],
      "name": "setFertilizerLimit",
      "outputs": [
        {
          "internalType": "bool",
          "name": "success",
          "type": "bool"
        }
      ],
      "stateMutability": "nonpayable",
      "type": "function"
    },
    {
      "inputs": [
        {
          "internalType": "address",
          "name": "_farm",
          "type": "address"
        },
        {
          "internalType": "int256",
          "name": "_fungicideLimit",
          "type": "int256"
        }
      ],
      "name": "setFungicideLimit",
      "outputs": [
        {
          "internalType": "bool",
          "name": "success",
          "type": "bool"
        }
      ],
      "stateMutability": "nonpayable",
      "type": "function"
    },
    {
      "inputs": [
        {
          "internalType": "address",
          "name": "_farm",
          "type": "address"
        },
        {
          "internalType": "int256",
          "name": "_herbicideLimit",
          "type": "int256"
        }
      ],
      "name": "setHerbicideLimit",
      "outputs": [
        {
          "internalType": "bool",
          "name": "success",
          "type": "bool"
        }
      ],
      "stateMutability": "nonpayable",
      "type": "function"
    },
    {
      "inputs": [
        {
          "internalType": "address",
          "name": "_farm",
          "type": "address"
        },
        {
          "internalType": "int256",
          "name": "_insecticideLimit",
          "type": "int256"
        }
      ],
      "name": "setInsecticideLimit",
      "outputs": [
        {
          "internalType": "bool",
          "name": "success",
          "type": "bool"
        }
      ],
      "stateMutability": "nonpayable",
      "type": "function"
    },
    {
      "inputs": [],
      "name": "symbol",
      "outputs": [
        {
          "internalType": "string",
          "name": "",
          "type": "string"
        }
      ],
      "stateMutability": "view",
      "type": "function"
    },
    {
      "inputs": [],
      "name": "totalSupply",
      "outputs": [
        {
          "internalType": "uint256",
          "name": "",
          "type": "uint256"
        }
      ],
      "stateMutability": "view",
      "type": "function"
    },
    {
      "inputs": [
        {
          "internalType": "address",
          "name": "_to",
          "type": "address"
        },
        {
          "internalType": "uint256",
          "name": "_value",
          "type": "uint256"
        }
      ],
      "name": "transfer",
      "outputs": [
        {
          "internalType": "bool",
          "name": "success",
          "type": "bool"
        }
      ],
      "stateMutability": "nonpayable",
      "type": "function"
    },
    {
      "inputs": [
        {
          "internalType": "string",
          "name": "_brand",
          "type": "string"
        },
        {
          "internalType": "string",
          "name": "_location",
          "type": "string"
        },
        {
          "internalType": "int256",
          "name": "_amount",
          "type": "int256"
        },
        {
          "internalType": "uint256",
          "name": "_cropCount",
          "type": "uint256"
        },
        {
          "internalType": "string",
          "name": "_cropType",
          "type": "string"
        },
        {
          "internalType": "string",
          "name": "_timestamp",
          "type": "string"
        },
        {
          "internalType": "string",
          "name": "_imageLink",
          "type": "string"
        }
      ],
      "name": "useFertilizer",
      "outputs": [
        {
          "internalType": "bool",
          "name": "success",
          "type": "bool"
        }
      ],
      "stateMutability": "nonpayable",
      "type": "function"
    },
    {
      "inputs": [
        {
          "internalType": "string",
          "name": "_location",
          "type": "string"
        },
        {
          "internalType": "int256",
          "name": "_amount",
          "type": "int256"
        },
        {
          "internalType": "uint256",
          "name": "_cropCount",
          "type": "uint256"
        },
        {
          "internalType": "string",
          "name": "_cropType",
          "type": "string"
        },
        {
          "internalType": "string",
          "name": "_imageLink",
          "type": "string"
        },
        {
          "internalType": "uint256",
          "name": "_timesRun",
          "type": "uint256"
        },
        {
          "internalType": "string",
          "name": "_startTime",
          "type": "string"
        },
        {
          "internalType": "string",
          "name": "_endTime",
          "type": "string"
        }
      ],
      "name": "useFertilizerBulk",
      "outputs": [
        {
          "internalType": "bool",
          "name": "success",
          "type": "bool"
        }
      ],
      "stateMutability": "nonpayable",
      "type": "function"
    },
    {
      "inputs": [
        {
          "internalType": "string",
          "name": "_location",
          "type": "string"
        },
        {
          "internalType": "int256",
          "name": "_amount",
          "type": "int256"
        },
        {
          "internalType": "uint256",
          "name": "_cropCount",
          "type": "uint256"
        },
        {
          "internalType": "string",
          "name": "_cropType",
          "type": "string"
        },
        {
          "internalType": "string",
          "name": "_imageLink",
          "type": "string"
        },
        {
          "internalType": "uint256",
          "name": "_timesRun",
          "type": "uint256"
        },
        {
          "internalType": "string",
          "name": "_startTime",
          "type": "string"
        },
        {
          "internalType": "string",
          "name": "_endTime",
          "type": "string"
        }
      ],
      "name": "useFungicideBulk",
      "outputs": [
        {
          "internalType": "bool",
          "name": "success",
          "type": "bool"
        }
      ],
      "stateMutability": "nonpayable",
      "type": "function"
    },
    {
      "inputs": [
        {
          "internalType": "string",
          "name": "_location",
          "type": "string"
        },
        {
          "internalType": "int256",
          "name": "_amount",
          "type": "int256"
        },
        {
          "internalType": "uint256",
          "name": "_cropCount",
          "type": "uint256"
        },
        {
          "internalType": "string",
          "name": "_cropType",
          "type": "string"
        },
        {
          "internalType": "string",
          "name": "_imageLink",
          "type": "string"
        },
        {
          "internalType": "uint256",
          "name": "_timesRun",
          "type": "uint256"
        },
        {
          "internalType": "string",
          "name": "_startTime",
          "type": "string"
        },
        {
          "internalType": "string",
          "name": "_endTime",
          "type": "string"
        }
      ],
      "name": "useHerbicideBulk",
      "outputs": [
        {
          "internalType": "bool",
          "name": "success",
          "type": "bool"
        }
      ],
      "stateMutability": "nonpayable",
      "type": "function"
    },
    {
      "inputs": [
        {
          "internalType": "string",
          "name": "_location",
          "type": "string"
        },
        {
          "internalType": "int256",
          "name": "_amount",
          "type": "int256"
        },
        {
          "internalType": "uint256",
          "name": "_cropCount",
          "type": "uint256"
        },
        {
          "internalType": "string",
          "name": "_cropType",
          "type": "string"
        },
        {
          "internalType": "string",
          "name": "_imageLink",
          "type": "string"
        },
        {
          "internalType": "uint256",
          "name": "_timesRun",
          "type": "uint256"
        },
        {
          "internalType": "string",
          "name": "_startTime",
          "type": "string"
        },
        {
          "internalType": "string",
          "name": "_endTime",
          "type": "string"
        }
      ],
      "name": "useInsecticideBulk",
      "outputs": [
        {
          "internalType": "bool",
          "name": "success",
          "type": "bool"
        }
      ],
      "stateMutability": "nonpayable",
      "type": "function"
    },
    {
      "inputs": [
        {
          "internalType": "string",
          "name": "_brand",
          "type": "string"
        },
        {
          "internalType": "string",
          "name": "_location",
          "type": "string"
        },
        {
          "internalType": "int256",
          "name": "_amount",
          "type": "int256"
        },
        {
          "internalType": "uint256",
          "name": "_cropCount",
          "type": "uint256"
        },
        {
          "internalType": "string",
          "name": "_cropType",
          "type": "string"
        },
        {
          "internalType": "string",
          "name": "_timestamp",
          "type": "string"
        },
        {
          "internalType": "string",
          "name": "_imageLink",
          "type": "string"
        },
        {
          "internalType": "string",
          "name": "_typeOfPesticide",
          "type": "string"
        }
      ],
      "name": "usePesticide",
      "outputs": [
        {
          "internalType": "bool",
          "name": "success",
          "type": "bool"
        }
      ],
      "stateMutability": "nonpayable",
      "type": "function"
    }
  ],
  "bytecode": "0x60806040526040518060400160405280600981526020017f43726f70546f6b656e00000000000000000000000000000000000000000000008152506000908161004891906103a0565b506040518060400160405280600281526020017f43540000000000000000000000000000000000000000000000000000000000008152506001908161008d91906103a0565b5034801561009a57600080fd5b50604051614dbd380380614dbd83398181016040528101906100bc91906104a3565b80600281905550600254600460003373ffffffffffffffffffffffffffffffffffffffff1673ffffffffffffffffffffffffffffffffffffffff1681526020019081526020016000208190555033600360006101000a81548173ffffffffffffffffffffffffffffffffffffffff021916908373ffffffffffffffffffffffffffffffffffffffff160217905550506104d0565b600081519050919050565b7f4e487b7100000000000000000000000000000000000000000000000000000000600052604160045260246000fd5b7f4e487b7100000000000000000000000000000000000000000000000000000000600052602260045260246000fd5b600060028204905060018216806101d157607f821691505b6020821081036101e4576101e361018a565b5b50919050565b60008190508160005260206000209050919050565b60006020601f8301049050919050565b600082821b905092915050565b60006008830261024c7fffffffffffffffffffffffffffffffffffffffffffffffffffffffffffffffff8261020f565b610256868361020f565b95508019841693508086168417925050509392505050565b6000819050919050565b6000819050919050565b600061029d6102986102938461026e565b610278565b61026e565b9050919050565b6000819050919050565b6102b783610282565b6102cb6102c3826102a4565b84845461021c565b825550505050565b600090565b6102e06102d3565b6102eb8184846102ae565b505050565b5b8181101561030f576103046000826102d8565b6001810190506102f1565b5050565b601f82111561035457610325816101ea565b61032e846101ff565b8101602085101561033d578190505b610351610349856101ff565b8301826102f0565b50505b505050565b600082821c905092915050565b600061037760001984600802610359565b1980831691505092915050565b60006103908383610366565b9150826002028217905092915050565b6103a982610150565b67ffffffffffffffff8111156103c2576103c161015b565b5b6103cc82546101b9565b6103d7828285610313565b600060209050601f83116001811461040a57600084156103f8578287015190505b6104028582610384565b86555061046a565b601f198416610418866101ea565b60005b828110156104405784890151825560018201915060208501945060208101905061041b565b8683101561045d5784890151610459601f891682610366565b8355505b6001600288020188555050505b505050505050565b600080fd5b6104808161026e565b811461048b57600080fd5b50565b60008151905061049d81610477565b92915050565b6000602082840312156104b9576104b8610472565b5b60006104c78482850161048e565b91505092915050565b6148de806104df6000396000f3fe608060405234801561001057600080fd5b506004361061014d5760003560e01c80636d0dad01116100c3578063a9059cbb1161007c578063a9059cbb1461044c578063c01c0d5a1461047c578063c778c214146104ac578063c92a1e74146104dc578063da6e6de61461050c578063ee0446b21461053c5761014d565b80636d0dad011461033e57806370a082311461036e5780637e8a9d701461039e5780638f658f04146103ce57806395d89b41146103fe5780639746a30e1461041c5761014d565b806342b551ca1161011557806342b551ca1461021e5780634a13385d1461024e5780634b39113e1461027e57806350c358a4146102ae578063681a4806146102de5780636c37f06b1461030e5761014d565b806306fdde0314610152578063095ea7b31461017057806318160ddd146101a0578063210a5f51146101be5780633b00a830146101ee575b600080fd5b61015a61056c565b60405161016791906127d1565b60405180910390f35b61018a6004803603810190610185919061289b565b6105fa565b60405161019791906128f6565b60405180910390f35b6101a86108a6565b6040516101b59190612920565b60405180910390f35b6101d860048036038101906101d39190612aa6565b6108ac565b6040516101e591906128f6565b60405180910390f35b61020860048036038101906102039190612bd4565b610aea565b6040516102159190612c10565b60405180910390f35b61023860048036038101906102339190612c2b565b610b02565b60405161024591906128f6565b60405180910390f35b61026860048036038101906102639190612bd4565b610d9b565b6040516102759190612c10565b60405180910390f35b61029860048036038101906102939190612c2b565b610db3565b6040516102a591906128f6565b60405180910390f35b6102c860048036038101906102c39190612bd4565b61104c565b6040516102d591906128f6565b60405180910390f35b6102f860048036038101906102f39190612d6d565b6110a6565b60405161030591906128f6565b60405180910390f35b61032860048036038101906103239190612dad565b611258565b60405161033591906128f6565b60405180910390f35b61035860048036038101906103539190612c2b565b61152a565b60405161036591906128f6565b60405180910390f35b61038860048036038101906103839190612bd4565b6117c3565b6040516103959190612920565b60405180910390f35b6103b860048036038101906103b39190612d6d565b6117db565b6040516103c591906128f6565b60405180910390f35b6103e860048036038101906103e39190612bd4565b61198d565b6040516103f59190612c10565b60405180910390f35b6104066119a5565b60405161041391906127d1565b60405180910390f35b61043660048036038101906104319190612c2b565b611a33565b60405161044391906128f6565b60405180910390f35b6104666004803603810190610461919061289b565b611ccc565b60405161047391906128f6565b60405180910390f35b61049660048036038101906104919190612d6d565b611eae565b6040516104a391906128f6565b60405180910390f35b6104c660048036038101906104c19190612e00565b612060565b6040516104d391906128f6565b60405180910390f35b6104f660048036038101906104f19190612d6d565b61255f565b60405161050391906128f6565b60405180910390f35b61052660048036038101906105219190612bd4565b612711565b6040516105339190612c10565b60405180910390f35b61055660048036038101906105519190612bd4565b612729565b6040516105639190612920565b60405180910390f35b6000805461057990612f8d565b80601f01602080910402602001604051908101604052809291908181526020018280546105a590612f8d565b80156105f25780601f106105c7576101008083540402835291602001916105f2565b820191906000526020600020905b8154815290600101906020018083116105d557829003601f168201915b505050505081565b60008082101561063f576040517f08c379a00000000000000000000000000000000000000000000000000000000081526004016106369061300a565b60405180910390fd5b600360009054906101000a900473ffffffffffffffffffffffffffffffffffffffff1673ffffffffffffffffffffffffffffffffffffffff163373ffffffffffffffffffffffffffffffffffffffff16146106cf576040517f08c379a00000000000000000000000000000000000000000000000000000000081526004016106c69061309c565b60405180910390fd5b81600460003373ffffffffffffffffffffffffffffffffffffffff1673ffffffffffffffffffffffffffffffffffffffff168152602001908152602001600020541015610751576040517f08c379a000000000000000000000000000000000000000000000000000000000815260040161074890613108565b60405180910390fd5b600360009054906101000a900473ffffffffffffffffffffffffffffffffffffffff1673ffffffffffffffffffffffffffffffffffffffff168373ffffffffffffffffffffffffffffffffffffffff16036107e1576040517f08c379a00000000000000000000000000000000000000000000000000000000081526004016107d89061319a565b60405180910390fd5b81600560008573ffffffffffffffffffffffffffffffffffffffff1673ffffffffffffffffffffffffffffffffffffffff168152602001908152602001600020600082825461083091906131e9565b925050819055508273ffffffffffffffffffffffffffffffffffffffff163373ffffffffffffffffffffffffffffffffffffffff167f8c5be1e5ebec7d5bd14f71427d1e84f3dd0314c0f7b2291e5b200ac8c7c3b925846040516108949190612920565b60405180910390a36001905092915050565b60025481565b6000808851116108f1576040517f08c379a00000000000000000000000000000000000000000000000000000000081526004016108e890613269565b60405180910390fd5b6000875111610935576040517f08c379a000000000000000000000000000000000000000000000000000000000815260040161092c906132fb565b60405180910390fd5b6000845111610979576040517f08c379a00000000000000000000000000000000000000000000000000000000081526004016109709061338d565b60405180910390fd5b600086136109bc576040517f08c379a00000000000000000000000000000000000000000000000000000000081526004016109b39061341f565b60405180910390fd5b600085116109ff576040517f08c379a00000000000000000000000000000000000000000000000000000000081526004016109f6906134b1565b60405180910390fd5b60006040518060e001604052808a815260200189815260200188815260200187815260200186815260200185815260200184815250905086600660003373ffffffffffffffffffffffffffffffffffffffff1673ffffffffffffffffffffffffffffffffffffffff1681526020019081526020016000206000828254610a8591906134d1565b925050819055503373ffffffffffffffffffffffffffffffffffffffff167fc7efa70c045d3b605de85e88942db694ceaa3c84e2ae86e03c654890b3d4324b82604051610ad29190613634565b60405180910390a26001915050979650505050505050565b60086020528060005260406000206000915090505481565b600080895111610b47576040517f08c379a0000000000000000000000000000000000000000000000000000000008152600401610b3e906136c8565b60405180910390fd5b6000865111610b8b576040517f08c379a0000000000000000000000000000000000000000000000000000000008152600401610b829061375a565b60405180910390fd5b60008813610bce576040517f08c379a0000000000000000000000000000000000000000000000000000000008152600401610bc5906137ec565b60405180910390fd5b60008711610c11576040517f08c379a0000000000000000000000000000000000000000000000000000000008152600401610c089061387e565b60405180910390fd5b60008411610c54576040517f08c379a0000000000000000000000000000000000000000000000000000000008152600401610c4b906138ea565b60405180910390fd5b60006040518060e001604052806040518060400160405280600981526020017f686572626963696465000000000000000000000000000000000000000000000081525081526020018b81526020018a81526020018981526020018881526020018581526020018781525090506000604051806080016040528083815260200187815260200186815260200185815250905089600960003373ffffffffffffffffffffffffffffffffffffffff1673ffffffffffffffffffffffffffffffffffffffff1681526020019081526020016000206000828254610d3491906134d1565b925050819055503373ffffffffffffffffffffffffffffffffffffffff167f137e13f0f609aaa3255f65764e6f31733a6e92a86b03fa192f2ab8d2682565dd82604051610d819190613a33565b60405180910390a260019250505098975050505050505050565b60076020528060005260406000206000915090505481565b600080895111610df8576040517f08c379a0000000000000000000000000000000000000000000000000000000008152600401610def906132fb565b60405180910390fd5b6000865111610e3c576040517f08c379a0000000000000000000000000000000000000000000000000000000008152600401610e339061338d565b60405180910390fd5b60008813610e7f576040517f08c379a0000000000000000000000000000000000000000000000000000000008152600401610e769061341f565b60405180910390fd5b60008711610ec2576040517f08c379a0000000000000000000000000000000000000000000000000000000008152600401610eb9906134b1565b60405180910390fd5b60008411610f05576040517f08c379a0000000000000000000000000000000000000000000000000000000008152600401610efc906138ea565b60405180910390fd5b60006040518060e001604052806040518060400160405280600a81526020017f66657274696c697a65720000000000000000000000000000000000000000000081525081526020018b81526020018a81526020018981526020018881526020018581526020018781525090506000604051806080016040528083815260200187815260200186815260200185815250905089600660003373ffffffffffffffffffffffffffffffffffffffff1673ffffffffffffffffffffffffffffffffffffffff1681526020019081526020016000206000828254610fe591906134d1565b925050819055503373ffffffffffffffffffffffffffffffffffffffff167fee2985e8718b8e7f9e4dca3549a1fbf99e39f1d54553c42f938c378bb27da118826040516110329190613a33565b60405180910390a260019250505098975050505050505050565b60008173ffffffffffffffffffffffffffffffffffffffff16600360009054906101000a900473ffffffffffffffffffffffffffffffffffffffff1673ffffffffffffffffffffffffffffffffffffffff16149050919050565b6000600360009054906101000a900473ffffffffffffffffffffffffffffffffffffffff1673ffffffffffffffffffffffffffffffffffffffff163373ffffffffffffffffffffffffffffffffffffffff1614611138576040517f08c379a000000000000000000000000000000000000000000000000000000000815260040161112f90613ac7565b60405180910390fd5b6000821361117b576040517f08c379a000000000000000000000000000000000000000000000000000000000815260040161117290613b59565b60405180910390fd5b81600960008573ffffffffffffffffffffffffffffffffffffffff1673ffffffffffffffffffffffffffffffffffffffff168152602001908152602001600020819055508273ffffffffffffffffffffffffffffffffffffffff167f487dd33b8a409b3a46c1bafa2c98390dbe9e13ded5f99508a045183c16595d57600960008673ffffffffffffffffffffffffffffffffffffffff1673ffffffffffffffffffffffffffffffffffffffff1681526020019081526020016000205484604051611246929190613b79565b60405180910390a26001905092915050565b60008082101561129d576040517f08c379a000000000000000000000000000000000000000000000000000000000815260040161129490613bee565b60405180910390fd5b600560003373ffffffffffffffffffffffffffffffffffffffff1673ffffffffffffffffffffffffffffffffffffffff1681526020019081526020016000205482111561131f576040517f08c379a000000000000000000000000000000000000000000000000000000000815260040161131690613c80565b60405180910390fd5b81600460008673ffffffffffffffffffffffffffffffffffffffff1673ffffffffffffffffffffffffffffffffffffffff1681526020019081526020016000205410156113a1576040517f08c379a000000000000000000000000000000000000000000000000000000000815260040161139890613108565b60405180910390fd5b81600460008673ffffffffffffffffffffffffffffffffffffffff1673ffffffffffffffffffffffffffffffffffffffff16815260200190815260200160002060008282546113f09190613ca0565b9250508190555081600460008573ffffffffffffffffffffffffffffffffffffffff1673ffffffffffffffffffffffffffffffffffffffff168152602001908152602001600020600082825461144691906131e9565b9250508190555081600560003373ffffffffffffffffffffffffffffffffffffffff1673ffffffffffffffffffffffffffffffffffffffff168152602001908152602001600020600082825461149c9190613ca0565b925050819055503373ffffffffffffffffffffffffffffffffffffffff168373ffffffffffffffffffffffffffffffffffffffff168573ffffffffffffffffffffffffffffffffffffffff167f254d550bc4358b4095d41e54422cf3053aec5e46dcc029184856bfd36fa820ee856040516115179190612920565b60405180910390a4600190509392505050565b60008089511161156f576040517f08c379a000000000000000000000000000000000000000000000000000000000815260040161156690613d46565b60405180910390fd5b60008651116115b3576040517f08c379a00000000000000000000000000000000000000000000000000000000081526004016115aa90613dd8565b60405180910390fd5b600088136115f6576040517f08c379a00000000000000000000000000000000000000000000000000000000081526004016115ed90613e6a565b60405180910390fd5b60008711611639576040517f08c379a000000000000000000000000000000000000000000000000000000000815260040161163090613efc565b60405180910390fd5b6000841161167c576040517f08c379a0000000000000000000000000000000000000000000000000000000008152600401611673906138ea565b60405180910390fd5b60006040518060e001604052806040518060400160405280600b81526020017f696e73656374696369646500000000000000000000000000000000000000000081525081526020018b81526020018a81526020018981526020018881526020018581526020018781525090506000604051806080016040528083815260200187815260200186815260200185815250905089600860003373ffffffffffffffffffffffffffffffffffffffff1673ffffffffffffffffffffffffffffffffffffffff168152602001908152602001600020600082825461175c91906134d1565b925050819055503373ffffffffffffffffffffffffffffffffffffffff167f8e9f8c7972edb68324064cb7905aef87e110f5f95819c5e604332e6a9c6d6d9e826040516117a99190613a33565b60405180910390a260019250505098975050505050505050565b60046020528060005260406000206000915090505481565b6000600360009054906101000a900473ffffffffffffffffffffffffffffffffffffffff1673ffffffffffffffffffffffffffffffffffffffff163373ffffffffffffffffffffffffffffffffffffffff161461186d576040517f08c379a000000000000000000000000000000000000000000000000000000000815260040161186490613f8e565b60405180910390fd5b600082136118b0576040517f08c379a00000000000000000000000000000000000000000000000000000000081526004016118a790614020565b60405180910390fd5b81600660008573ffffffffffffffffffffffffffffffffffffffff1673ffffffffffffffffffffffffffffffffffffffff168152602001908152602001600020819055508273ffffffffffffffffffffffffffffffffffffffff167f07b1600c6cbd6632f059d18c6a65102856ddb18d04f08d742959815b8e968baf600660008673ffffffffffffffffffffffffffffffffffffffff1673ffffffffffffffffffffffffffffffffffffffff168152602001908152602001600020548460405161197b929190613b79565b60405180910390a26001905092915050565b60066020528060005260406000206000915090505481565b600180546119b290612f8d565b80601f01602080910402602001604051908101604052809291908181526020018280546119de90612f8d565b8015611a2b5780601f10611a0057610100808354040283529160200191611a2b565b820191906000526020600020905b815481529060010190602001808311611a0e57829003601f168201915b505050505081565b600080895111611a78576040517f08c379a0000000000000000000000000000000000000000000000000000000008152600401611a6f906140b2565b60405180910390fd5b6000865111611abc576040517f08c379a0000000000000000000000000000000000000000000000000000000008152600401611ab390614144565b60405180910390fd5b60008813611aff576040517f08c379a0000000000000000000000000000000000000000000000000000000008152600401611af6906141d6565b60405180910390fd5b60008711611b42576040517f08c379a0000000000000000000000000000000000000000000000000000000008152600401611b3990614268565b60405180910390fd5b60008411611b85576040517f08c379a0000000000000000000000000000000000000000000000000000000008152600401611b7c906138ea565b60405180910390fd5b60006040518060e001604052806040518060400160405280600981526020017f66756e676963696465000000000000000000000000000000000000000000000081525081526020018b81526020018a81526020018981526020018881526020018581526020018781525090506000604051806080016040528083815260200187815260200186815260200185815250905089600760003373ffffffffffffffffffffffffffffffffffffffff1673ffffffffffffffffffffffffffffffffffffffff1681526020019081526020016000206000828254611c6591906134d1565b925050819055503373ffffffffffffffffffffffffffffffffffffffff167f5e68f8383448cdb22e62448deadfa16b95a28a49d26b909e1ad586e16e3c0f1d82604051611cb29190613a33565b60405180910390a260019250505098975050505050505050565b600080821015611d11576040517f08c379a0000000000000000000000000000000000000000000000000000000008152600401611d0890613bee565b60405180910390fd5b81600460003373ffffffffffffffffffffffffffffffffffffffff1673ffffffffffffffffffffffffffffffffffffffff168152602001908152602001600020541015611d93576040517f08c379a0000000000000000000000000000000000000000000000000000000008152600401611d8a90613108565b60405180910390fd5b81600460003373ffffffffffffffffffffffffffffffffffffffff1673ffffffffffffffffffffffffffffffffffffffff1681526020019081526020016000206000828254611de29190613ca0565b9250508190555081600460008573ffffffffffffffffffffffffffffffffffffffff1673ffffffffffffffffffffffffffffffffffffffff1681526020019081526020016000206000828254611e3891906131e9565b925050819055508273ffffffffffffffffffffffffffffffffffffffff163373ffffffffffffffffffffffffffffffffffffffff167fddf252ad1be2c89b69c2b068fc378daa952ba7f163c4a11628f55a4df523b3ef84604051611e9c9190612920565b60405180910390a36001905092915050565b6000600360009054906101000a900473ffffffffffffffffffffffffffffffffffffffff1673ffffffffffffffffffffffffffffffffffffffff163373ffffffffffffffffffffffffffffffffffffffff1614611f40576040517f08c379a0000000000000000000000000000000000000000000000000000000008152600401611f37906142fa565b60405180910390fd5b60008213611f83576040517f08c379a0000000000000000000000000000000000000000000000000000000008152600401611f7a9061438c565b60405180910390fd5b81600860008573ffffffffffffffffffffffffffffffffffffffff1673ffffffffffffffffffffffffffffffffffffffff168152602001908152602001600020819055508273ffffffffffffffffffffffffffffffffffffffff167f0b27181970eb8502c2e02ffde1bdb7d8a13a11d1997334adc57279a04bd8fc19600860008673ffffffffffffffffffffffffffffffffffffffff1673ffffffffffffffffffffffffffffffffffffffff168152602001908152602001600020548460405161204e929190613b79565b60405180910390a26001905092915050565b6000808951116120a5576040517f08c379a000000000000000000000000000000000000000000000000000000000815260040161209c906143f8565b60405180910390fd5b60008851116120e9576040517f08c379a00000000000000000000000000000000000000000000000000000000081526004016120e09061448a565b60405180910390fd5b600085511161212d576040517f08c379a00000000000000000000000000000000000000000000000000000000081526004016121249061451c565b60405180910390fd5b6000825111612171576040517f08c379a0000000000000000000000000000000000000000000000000000000008152600401612168906145ae565b60405180910390fd5b600087136121b4576040517f08c379a00000000000000000000000000000000000000000000000000000000081526004016121ab90614640565b60405180910390fd5b600086116121f7576040517f08c379a00000000000000000000000000000000000000000000000000000000081526004016121ee906146d2565b60405180910390fd5b60006040518060e001604052808b81526020018a81526020018981526020018881526020018781526020018681526020018581525090506040518060400160405280600981526020017f46756e6769636964650000000000000000000000000000000000000000000000815250805190602001208380519060200120036123215787600760003373ffffffffffffffffffffffffffffffffffffffff1673ffffffffffffffffffffffffffffffffffffffff16815260200190815260200160002060008282546122c791906134d1565b925050819055503373ffffffffffffffffffffffffffffffffffffffff167f78f182f1071df0de1fb930e592a2365327f5061f89537cea972380e016f21943826040516123149190613634565b60405180910390a261254e565b6040518060400160405280600b81526020017f496e736563746963696465000000000000000000000000000000000000000000815250805190602001208380519060200120036124145787600860003373ffffffffffffffffffffffffffffffffffffffff1673ffffffffffffffffffffffffffffffffffffffff16815260200190815260200160002060008282546123ba91906134d1565b925050819055503373ffffffffffffffffffffffffffffffffffffffff167f8d0e8453e71d4ba8c6eb4aaada5ffcc09343a6062e36b4c8cfea6564358be8c3826040516124079190613634565b60405180910390a261254d565b6040518060400160405280600981526020017f4865726269636964650000000000000000000000000000000000000000000000815250805190602001208380519060200120036125075787600960003373ffffffffffffffffffffffffffffffffffffffff1673ffffffffffffffffffffffffffffffffffffffff16815260200190815260200160002060008282546124ad91906134d1565b925050819055503373ffffffffffffffffffffffffffffffffffffffff167fcb3cec85f079c7fe533adcecdf0b567b4761eb451d3efc3c0f341ef147da66b7826040516124fa9190613634565b60405180910390a261254c565b600060011461254b576040517f08c379a000000000000000000000000000000000000000000000000000000000815260040161254290614764565b60405180910390fd5b5b5b5b600191505098975050505050505050565b6000600360009054906101000a900473ffffffffffffffffffffffffffffffffffffffff1673ffffffffffffffffffffffffffffffffffffffff163373ffffffffffffffffffffffffffffffffffffffff16146125f1576040517f08c379a00000000000000000000000000000000000000000000000000000000081526004016125e8906147f6565b60405180910390fd5b60008213612634576040517f08c379a000000000000000000000000000000000000000000000000000000000815260040161262b90614888565b60405180910390fd5b81600760008573ffffffffffffffffffffffffffffffffffffffff1673ffffffffffffffffffffffffffffffffffffffff168152602001908152602001600020819055508273ffffffffffffffffffffffffffffffffffffffff167fb49c2ba63d76f1348d9f523e19ad4a39f55afd0a8df97158e7e51c03fb9c2e1c600760008673ffffffffffffffffffffffffffffffffffffffff1673ffffffffffffffffffffffffffffffffffffffff16815260200190815260200160002054846040516126ff929190613b79565b60405180910390a26001905092915050565b60096020528060005260406000206000915090505481565b60056020528060005260406000206000915090505481565b600081519050919050565b600082825260208201905092915050565b60005b8381101561277b578082015181840152602081019050612760565b60008484015250505050565b6000601f19601f8301169050919050565b60006127a382612741565b6127ad818561274c565b93506127bd81856020860161275d565b6127c681612787565b840191505092915050565b600060208201905081810360008301526127eb8184612798565b905092915050565b6000604051905090565b600080fd5b600080fd5b600073ffffffffffffffffffffffffffffffffffffffff82169050919050565b600061283282612807565b9050919050565b61284281612827565b811461284d57600080fd5b50565b60008135905061285f81612839565b92915050565b6000819050919050565b61287881612865565b811461288357600080fd5b50565b6000813590506128958161286f565b92915050565b600080604083850312156128b2576128b16127fd565b5b60006128c085828601612850565b92505060206128d185828601612886565b9150509250929050565b60008115159050919050565b6128f0816128db565b82525050565b600060208201905061290b60008301846128e7565b92915050565b61291a81612865565b82525050565b60006020820190506129356000830184612911565b92915050565b600080fd5b600080fd5b7f4e487b7100000000000000000000000000000000000000000000000000000000600052604160045260246000fd5b61297d82612787565b810181811067ffffffffffffffff8211171561299c5761299b612945565b5b80604052505050565b60006129af6127f3565b90506129bb8282612974565b919050565b600067ffffffffffffffff8211156129db576129da612945565b5b6129e482612787565b9050602081019050919050565b82818337600083830152505050565b6000612a13612a0e846129c0565b6129a5565b905082815260208101848484011115612a2f57612a2e612940565b5b612a3a8482856129f1565b509392505050565b600082601f830112612a5757612a5661293b565b5b8135612a67848260208601612a00565b91505092915050565b6000819050919050565b612a8381612a70565b8114612a8e57600080fd5b50565b600081359050612aa081612a7a565b92915050565b600080600080600080600060e0888a031215612ac557612ac46127fd565b5b600088013567ffffffffffffffff811115612ae357612ae2612802565b5b612aef8a828b01612a42565b975050602088013567ffffffffffffffff811115612b1057612b0f612802565b5b612b1c8a828b01612a42565b9650506040612b2d8a828b01612a91565b9550506060612b3e8a828b01612886565b945050608088013567ffffffffffffffff811115612b5f57612b5e612802565b5b612b6b8a828b01612a42565b93505060a088013567ffffffffffffffff811115612b8c57612b8b612802565b5b612b988a828b01612a42565b92505060c088013567ffffffffffffffff811115612bb957612bb8612802565b5b612bc58a828b01612a42565b91505092959891949750929550565b600060208284031215612bea57612be96127fd565b5b6000612bf884828501612850565b91505092915050565b612c0a81612a70565b82525050565b6000602082019050612c256000830184612c01565b92915050565b600080600080600080600080610100898b031215612c4c57612c4b6127fd565b5b600089013567ffffffffffffffff811115612c6a57612c69612802565b5b612c768b828c01612a42565b9850506020612c878b828c01612a91565b9750506040612c988b828c01612886565b965050606089013567ffffffffffffffff811115612cb957612cb8612802565b5b612cc58b828c01612a42565b955050608089013567ffffffffffffffff811115612ce657612ce5612802565b5b612cf28b828c01612a42565b94505060a0612d038b828c01612886565b93505060c089013567ffffffffffffffff811115612d2457612d23612802565b5b612d308b828c01612a42565b92505060e089013567ffffffffffffffff811115612d5157612d50612802565b5b612d5d8b828c01612a42565b9150509295985092959890939650565b60008060408385031215612d8457612d836127fd565b5b6000612d9285828601612850565b9250506020612da385828601612a91565b9150509250929050565b600080600060608486031215612dc657612dc56127fd565b5b6000612dd486828701612850565b9350506020612de586828701612850565b9250506040612df686828701612886565b9150509250925092565b600080600080600080600080610100898b031215612e2157612e206127fd565b5b600089013567ffffffffffffffff811115612e3f57612e3e612802565b5b612e4b8b828c01612a42565b985050602089013567ffffffffffffffff811115612e6c57612e6b612802565b5b612e788b828c01612a42565b9750506040612e898b828c01612a91565b9650506060612e9a8b828c01612886565b955050608089013567ffffffffffffffff811115612ebb57612eba612802565b5b612ec78b828c01612a42565b94505060a089013567ffffffffffffffff811115612ee857612ee7612802565b5b612ef48b828c01612a42565b93505060c089013567ffffffffffffffff811115612f1557612f14612802565b5b612f218b828c01612a42565b92505060e089013567ffffffffffffffff811115612f4257612f41612802565b5b612f4e8b828c01612a42565b9150509295985092959890939650565b7f4e487b7100000000000000000000000000000000000000000000000000000000600052602260045260246000fd5b60006002820490506001821680612fa557607f821691505b602082108103612fb857612fb7612f5e565b5b50919050565b7f43616e6e6f7420617070726f7665206e65676174697665204d544b0000000000600082015250565b6000612ff4601b8361274c565b9150612fff82612fbe565b602082019050919050565b6000602082019050818103600083015261302381612fe7565b9050919050565b7f596f7520646f206e6f742068617665207065726d697373696f6e20746f20617060008201527f70726f7665000000000000000000000000000000000000000000000000000000602082015250565b600061308660258361274c565b91506130918261302a565b604082019050919050565b600060208201905081810360008301526130b581613079565b9050919050565b7f496e73756666696369656e742062616c616e6365000000000000000000000000600082015250565b60006130f260148361274c565b91506130fd826130bc565b602082019050919050565b60006020820190508181036000830152613121816130e5565b9050919050565b7f596f7520646f206e6f74206e65656420617070726f76616c20746f2073656e6460008201527f20746f6b656e7300000000000000000000000000000000000000000000000000602082015250565b600061318460278361274c565b915061318f82613128565b604082019050919050565b600060208201905081810360008301526131b381613177565b9050919050565b7f4e487b7100000000000000000000000000000000000000000000000000000000600052601160045260246000fd5b60006131f482612865565b91506131ff83612865565b9250828201905080821115613217576132166131ba565b5b92915050565b7f46657274696c697a6572206272616e64206d75737420626520676976656e0000600082015250565b6000613253601e8361274c565b915061325e8261321d565b602082019050919050565b6000602082019050818103600083015261328281613246565b9050919050565b7f4c6f636174696f6e2077686572652066657274696c697a65722077617320757360008201527f6564206d75737420626520676976656e00000000000000000000000000000000602082015250565b60006132e560308361274c565b91506132f082613289565b604082019050919050565b60006020820190508181036000830152613314816132d8565b9050919050565b7f43726f702074797065206f6e2077686963682066657274696c697a657220776160008201527f732075736564206d75737420626520676976656e000000000000000000000000602082015250565b600061337760348361274c565b91506133828261331b565b604082019050919050565b600060208201905081810360008301526133a68161336a565b9050919050565b7f416d6f756e74206f662066657274696c697a65722075736564206d757374206260008201527f6520676976656e00000000000000000000000000000000000000000000000000602082015250565b600061340960278361274c565b9150613414826133ad565b604082019050919050565b60006020820190508181036000830152613438816133fc565b9050919050565b7f4e756d626572206f662063726f70732066657274696c697a657220776173207560008201527f736564206f6e206d75737420626520676976656e000000000000000000000000602082015250565b600061349b60348361274c565b91506134a68261343f565b604082019050919050565b600060208201905081810360008301526134ca8161348e565b9050919050565b60006134dc82612a70565b91506134e783612a70565b925082820390508181126000841216828213600085121516171561350e5761350d6131ba565b5b92915050565b600082825260208201905092915050565b600061353082612741565b61353a8185613514565b935061354a81856020860161275d565b61355381612787565b840191505092915050565b61356781612a70565b82525050565b61357681612865565b82525050565b600060e08301600083015184820360008601526135998282613525565b915050602083015184820360208601526135b38282613525565b91505060408301516135c8604086018261355e565b5060608301516135db606086018261356d565b50608083015184820360808601526135f38282613525565b91505060a083015184820360a086015261360d8282613525565b91505060c083015184820360c08601526136278282613525565b9150508091505092915050565b6000602082019050818103600083015261364e818461357c565b905092915050565b7f4c6f636174696f6e20776865726520686572626963696465207761732075736560008201527f64206d75737420626520676976656e0000000000000000000000000000000000602082015250565b60006136b2602f8361274c565b91506136bd82613656565b604082019050919050565b600060208201905081810360008301526136e1816136a5565b9050919050565b7f43726f702074797065206f6e207768696368206865726269636964652077617360008201527f2075736564206d75737420626520676976656e00000000000000000000000000602082015250565b600061374460338361274c565b915061374f826136e8565b604082019050919050565b6000602082019050818103600083015261377381613737565b9050919050565b7f416d6f756e74206f66206865726269636964652075736564206d75737420626560008201527f20676976656e0000000000000000000000000000000000000000000000000000602082015250565b60006137d660268361274c565b91506137e18261377a565b604082019050919050565b60006020820190508181036000830152613805816137c9565b9050919050565b7f4e756d626572206f662063726f7073206865726269636964652077617320757360008201527f6564206f6e206d75737420626520676976656e00000000000000000000000000602082015250565b600061386860338361274c565b91506138738261380c565b604082019050919050565b600060208201905081810360008301526138978161385b565b9050919050565b7f4d75737420686176652072756e206174206c65617374206f6e63652e00000000600082015250565b60006138d4601c8361274c565b91506138df8261389e565b602082019050919050565b60006020820190508181036000830152613903816138c7565b9050919050565b600060e08301600083015184820360008601526139278282613525565b915050602083015184820360208601526139418282613525565b9150506040830151613956604086018261355e565b506060830151613969606086018261356d565b50608083015184820360808601526139818282613525565b91505060a083015184820360a086015261399b8282613525565b91505060c083015184820360c08601526139b58282613525565b9150508091505092915050565b600060808301600083015184820360008601526139df828261390a565b91505060208301516139f4602086018261356d565b5060408301518482036040860152613a0c8282613525565b91505060608301518482036060860152613a268282613525565b9150508091505092915050565b60006020820190508181036000830152613a4d81846139c2565b905092915050565b7f596f7520646f206e6f742068617665207065726d697373696f6e20746f20736560008201527f742074686520686572626963696465206c696d69740000000000000000000000602082015250565b6000613ab160358361274c565b9150613abc82613a55565b604082019050919050565b60006020820190508181036000830152613ae081613aa4565b9050919050565b7f416d6f756e7420746f2061646420746f20686572626963696465206c696d697460008201527f206d7573742062652067726561746572207468616e2030000000000000000000602082015250565b6000613b4360378361274c565b9150613b4e82613ae7565b604082019050919050565b60006020820190508181036000830152613b7281613b36565b9050919050565b6000604082019050613b8e6000830185612c01565b613b9b6020830184612c01565b9392505050565b7f43616e6e6f74207472616e73666572206e65676174697665204d544b00000000600082015250565b6000613bd8601c8361274c565b9150613be382613ba2565b602082019050919050565b60006020820190508181036000830152613c0781613bcb565b9050919050565b7f596f7520617265206e6f7420617070726f76656420746f207472616e7366657260008201527f2074686174206d75636800000000000000000000000000000000000000000000602082015250565b6000613c6a602a8361274c565b9150613c7582613c0e565b604082019050919050565b60006020820190508181036000830152613c9981613c5d565b9050919050565b6000613cab82612865565b9150613cb683612865565b9250828203905081811115613cce57613ccd6131ba565b5b92915050565b7f4c6f636174696f6e20776865726520696e73656374696369646520776173207560008201527f736564206d75737420626520676976656e000000000000000000000000000000602082015250565b6000613d3060318361274c565b9150613d3b82613cd4565b604082019050919050565b60006020820190508181036000830152613d5f81613d23565b9050919050565b7f43726f702074797065206f6e20776869636820696e736563746963696465207760008201527f61732075736564206d75737420626520676976656e0000000000000000000000602082015250565b6000613dc260358361274c565b9150613dcd82613d66565b604082019050919050565b60006020820190508181036000830152613df181613db5565b9050919050565b7f416d6f756e74206f6620696e7365637469636964652075736564206d7573742060008201527f626520676976656e000000000000000000000000000000000000000000000000602082015250565b6000613e5460288361274c565b9150613e5f82613df8565b604082019050919050565b60006020820190508181036000830152613e8381613e47565b9050919050565b7f4e756d626572206f662063726f707320696e736563746963696465207761732060008201527f75736564206f6e206d75737420626520676976656e0000000000000000000000602082015250565b6000613ee660358361274c565b9150613ef182613e8a565b604082019050919050565b60006020820190508181036000830152613f1581613ed9565b9050919050565b7f596f7520646f206e6f742068617665207065726d697373696f6e20746f20736560008201527f74207468652066657274696c697a6572206c696d697400000000000000000000602082015250565b6000613f7860368361274c565b9150613f8382613f1c565b604082019050919050565b60006020820190508181036000830152613fa781613f6b565b9050919050565b7f416d6f756e7420746f2061646420746f2066657274696c697a6572206c696d6960008201527f74206d7573742062652067726561746572207468616e20300000000000000000602082015250565b600061400a60388361274c565b915061401582613fae565b604082019050919050565b6000602082019050818103600083015261403981613ffd565b9050919050565b7f4c6f636174696f6e2077686572652066756e676963696465207761732075736560008201527f64206d75737420626520676976656e0000000000000000000000000000000000602082015250565b600061409c602f8361274c565b91506140a782614040565b604082019050919050565b600060208201905081810360008301526140cb8161408f565b9050919050565b7f43726f702074797065206f6e2077686963682066756e6769636964652077617360008201527f2075736564206d75737420626520676976656e00000000000000000000000000602082015250565b600061412e60338361274c565b9150614139826140d2565b604082019050919050565b6000602082019050818103600083015261415d81614121565b9050919050565b7f416d6f756e74206f662066756e6769636964652075736564206d75737420626560008201527f20676976656e0000000000000000000000000000000000000000000000000000602082015250565b60006141c060268361274c565b91506141cb82614164565b604082019050919050565b600060208201905081810360008301526141ef816141b3565b9050919050565b7f4e756d626572206f662063726f70732066756e6769636964652077617320757360008201527f6564206f6e206d75737420626520676976656e00000000000000000000000000602082015250565b600061425260338361274c565b915061425d826141f6565b604082019050919050565b6000602082019050818103600083015261428181614245565b9050919050565b7f596f7520646f206e6f742068617665207065726d697373696f6e20746f20736560008201527f742074686520696e736563746963696465206c696d6974000000000000000000602082015250565b60006142e460378361274c565b91506142ef82614288565b604082019050919050565b60006020820190508181036000830152614313816142d7565b9050919050565b7f416d6f756e7420746f2061646420746f20696e736563746963696465206c696d60008201527f6974206d7573742062652067726561746572207468616e203000000000000000602082015250565b600061437660398361274c565b91506143818261431a565b604082019050919050565b600060208201905081810360008301526143a581614369565b9050919050565b7f506573746963696465206272616e64206d75737420626520676976656e000000600082015250565b60006143e2601d8361274c565b91506143ed826143ac565b602082019050919050565b60006020820190508181036000830152614411816143d5565b9050919050565b7f4c6f636174696f6e20776865726520706573746963696465207761732075736560008201527f64206d75737420626520676976656e0000000000000000000000000000000000602082015250565b6000614474602f8361274c565b915061447f82614418565b604082019050919050565b600060208201905081810360008301526144a381614467565b9050919050565b7f43726f702074797065206f6e207768696368207065737469636964652077617360008201527f2075736564206d75737420626520676976656e00000000000000000000000000602082015250565b600061450660338361274c565b9150614511826144aa565b604082019050919050565b60006020820190508181036000830152614535816144f9565b9050919050565b7f54797065206f6620706573746963696465207761732075736564206d7573742060008201527f626520676976656e000000000000000000000000000000000000000000000000602082015250565b600061459860288361274c565b91506145a38261453c565b604082019050919050565b600060208201905081810360008301526145c78161458b565b9050919050565b7f416d6f756e74206f66207065737469636964652075736564206d75737420626560008201527f20676976656e0000000000000000000000000000000000000000000000000000602082015250565b600061462a60268361274c565b9150614635826145ce565b604082019050919050565b600060208201905081810360008301526146598161461d565b9050919050565b7f4e756d626572206f662063726f7073207065737469636964652077617320757360008201527f6564206f6e206d75737420626520676976656e00000000000000000000000000602082015250565b60006146bc60338361274c565b91506146c782614660565b604082019050919050565b600060208201905081810360008301526146eb816146af565b9050919050565b7f506573746963696465206d75737420626520612066756e6769636964652c206960008201527f6e7365637469636964652c206f72206865726269636964650000000000000000602082015250565b600061474e60388361274c565b9150614759826146f2565b604082019050919050565b6000602082019050818103600083015261477d81614741565b9050919050565b7f596f7520646f206e6f742068617665207065726d697373696f6e20746f20736560008201527f74207468652066756e676963696465206c696d69740000000000000000000000602082015250565b60006147e060358361274c565b91506147eb82614784565b604082019050919050565b6000602082019050818103600083015261480f816147d3565b9050919050565b7f416d6f756e7420746f2061646420746f2066756e676963696465206c696d697460008201527f206d7573742062652067726561746572207468616e2030000000000000000000602082015250565b600061487260378361274c565b915061487d82614816565b604082019050919050565b600060208201905081810360008301526148a181614865565b905091905056fea2646970667358221220b56219a4cf1e585fcdaa981e34bfac8277417348307f88d63d93f7fdb2984ae564736f6c634300081b0033",
  "linkReferences": {},
  "deployedLinkReferences": {}
}