{
  "_format": "hh-sol-artifact-1",
  "contractName": "CropToken",
  "sourceName": "contracts/MyToken.sol",
  "abi": [
    {
      "inputs": [
        {
          "internalType": "uint256",
          "name": "_initialSupply",
          "type": "uint256"
        }
      ],
      "stateMutability": "nonpayable",
      "type": "constructor"
    },
    {
      "anonymous": false,
      "inputs": [
        {
          "indexed": true,
          "internalType": "address",
          "name": "sender",
          "type": "address"
        },
        {
          "indexed": true,
          "internalType": "address",
          "name": "spender",
          "type": "address"
        },
        {
          "indexed": false,
          "internalType": "uint256",
          "name": "value",
          "type": "uint256"
        }
      ],
      "name": "Approval",
      "type": "event"
    },
    {
      "anonymous": false,
      "inputs": [
        {
          "indexed": true,
          "internalType": "address",
          "name": "from",
          "type": "address"
        },
        {
          "indexed": true,
          "internalType": "address",
          "name": "to",
          "type": "address"
        },
        {
          "indexed": true,
          "internalType": "address",
          "name": "sender",
          "type": "address"
        },
        {
          "indexed": false,
          "internalType": "uint256",
          "name": "value",
          "type": "uint256"
        }
      ],
      "name": "ApprovedTransfer",
      "type": "event"
    },
    {
      "anonymous": false,
      "inputs": [
        {
          "indexed": true,
          "internalType": "address",
          "name": "from",
          "type": "address"
        },
        {
          "components": [
            {
              "internalType": "string",
              "name": "brandUsed",
              "type": "string"
            },
            {
              "internalType": "string",
              "name": "locationUsed",
              "type": "string"
            },
            {
              "internalType": "uint256",
              "name": "amountUsed",
              "type": "uint256"
            },
            {
              "internalType": "uint256",
              "name": "cropCount",
              "type": "uint256"
            },
            {
              "internalType": "string",
              "name": "cropType",
              "type": "string"
            }
          ],
          "indexed": false,
          "internalType": "struct CropToken.Chemical",
          "name": "fertilizer",
          "type": "tuple"
        }
      ],
      "name": "Fertilizer",
      "type": "event"
    },
    {
      "anonymous": false,
      "inputs": [
        {
          "indexed": true,
          "internalType": "address",
          "name": "farm",
          "type": "address"
        },
        {
          "indexed": false,
          "internalType": "uint256",
          "name": "fertilizerLimit",
          "type": "uint256"
        },
        {
          "indexed": false,
          "internalType": "uint256",
          "name": "addedAmount",
          "type": "uint256"
        }
      ],
      "name": "FertilizerLimit",
      "type": "event"
    },
    {
      "anonymous": false,
      "inputs": [
        {
          "indexed": true,
          "internalType": "address",
          "name": "from",
          "type": "address"
        },
        {
          "components": [
            {
              "internalType": "string",
              "name": "brandUsed",
              "type": "string"
            },
            {
              "internalType": "string",
              "name": "locationUsed",
              "type": "string"
            },
            {
              "internalType": "uint256",
              "name": "amountUsed",
              "type": "uint256"
            },
            {
              "internalType": "uint256",
              "name": "cropCount",
              "type": "uint256"
            },
            {
              "internalType": "string",
              "name": "cropType",
              "type": "string"
            }
          ],
          "indexed": false,
          "internalType": "struct CropToken.Chemical",
          "name": "fungicide",
          "type": "tuple"
        }
      ],
      "name": "Fungicide",
      "type": "event"
    },
    {
      "anonymous": false,
      "inputs": [
        {
          "indexed": true,
          "internalType": "address",
          "name": "farm",
          "type": "address"
        },
        {
          "indexed": false,
          "internalType": "uint256",
          "name": "fungicideLimit",
          "type": "uint256"
        },
        {
          "indexed": false,
          "internalType": "uint256",
          "name": "addedAmount",
          "type": "uint256"
        }
      ],
      "name": "FungicideLimit",
      "type": "event"
    },
    {
      "anonymous": false,
      "inputs": [
        {
          "indexed": true,
          "internalType": "address",
          "name": "from",
          "type": "address"
        },
        {
          "components": [
            {
              "internalType": "string",
              "name": "brandUsed",
              "type": "string"
            },
            {
              "internalType": "string",
              "name": "locationUsed",
              "type": "string"
            },
            {
              "internalType": "uint256",
              "name": "amountUsed",
              "type": "uint256"
            },
            {
              "internalType": "uint256",
              "name": "cropCount",
              "type": "uint256"
            },
            {
              "internalType": "string",
              "name": "cropType",
              "type": "string"
            }
          ],
          "indexed": false,
          "internalType": "struct CropToken.Chemical",
          "name": "herbicide",
          "type": "tuple"
        }
      ],
      "name": "Herbicide",
      "type": "event"
    },
    {
      "anonymous": false,
      "inputs": [
        {
          "indexed": true,
          "internalType": "address",
          "name": "farm",
          "type": "address"
        },
        {
          "indexed": false,
          "internalType": "uint256",
          "name": "herbicideLimit",
          "type": "uint256"
        },
        {
          "indexed": false,
          "internalType": "uint256",
          "name": "addedAmount",
          "type": "uint256"
        }
      ],
      "name": "HerbicideLimit",
      "type": "event"
    },
    {
      "anonymous": false,
      "inputs": [
        {
          "indexed": true,
          "internalType": "address",
          "name": "from",
          "type": "address"
        },
        {
          "components": [
            {
              "internalType": "string",
              "name": "brandUsed",
              "type": "string"
            },
            {
              "internalType": "string",
              "name": "locationUsed",
              "type": "string"
            },
            {
              "internalType": "uint256",
              "name": "amountUsed",
              "type": "uint256"
            },
            {
              "internalType": "uint256",
              "name": "cropCount",
              "type": "uint256"
            },
            {
              "internalType": "string",
              "name": "cropType",
              "type": "string"
            }
          ],
          "indexed": false,
          "internalType": "struct CropToken.Chemical",
          "name": "insecticide",
          "type": "tuple"
        }
      ],
      "name": "Insecticide",
      "type": "event"
    },
    {
      "anonymous": false,
      "inputs": [
        {
          "indexed": true,
          "internalType": "address",
          "name": "farm",
          "type": "address"
        },
        {
          "indexed": false,
          "internalType": "uint256",
          "name": "insecticideLimit",
          "type": "uint256"
        },
        {
          "indexed": false,
          "internalType": "uint256",
          "name": "addedAmount",
          "type": "uint256"
        }
      ],
      "name": "InsecticideLimit",
      "type": "event"
    },
    {
      "anonymous": false,
      "inputs": [
        {
          "indexed": true,
          "internalType": "address",
          "name": "from",
          "type": "address"
        },
        {
          "indexed": true,
          "internalType": "address",
          "name": "to",
          "type": "address"
        },
        {
          "indexed": false,
          "internalType": "uint256",
          "name": "value",
          "type": "uint256"
        }
      ],
      "name": "Transfer",
      "type": "event"
    },
    {
      "inputs": [
        {
          "internalType": "address",
          "name": "_from",
          "type": "address"
        },
        {
          "internalType": "address",
          "name": "_to",
          "type": "address"
        },
        {
          "internalType": "uint256",
          "name": "_value",
          "type": "uint256"
        }
      ],
      "name": "approvalTransfer",
      "outputs": [
        {
          "internalType": "bool",
          "name": "success",
          "type": "bool"
        }
      ],
      "stateMutability": "nonpayable",
      "type": "function"
    },
    {
      "inputs": [
        {
          "internalType": "address",
          "name": "_spender",
          "type": "address"
        },
        {
          "internalType": "uint256",
          "name": "_value",
          "type": "uint256"
        }
      ],
      "name": "approve",
      "outputs": [
        {
          "internalType": "bool",
          "name": "success",
          "type": "bool"
        }
      ],
      "stateMutability": "nonpayable",
      "type": "function"
    },
    {
      "inputs": [
        {
          "internalType": "address",
          "name": "",
          "type": "address"
        }
      ],
      "name": "approvedAmount",
      "outputs": [
        {
          "internalType": "uint256",
          "name": "",
          "type": "uint256"
        }
      ],
      "stateMutability": "view",
      "type": "function"
    },
    {
      "inputs": [
        {
          "internalType": "address",
          "name": "",
          "type": "address"
        }
      ],
      "name": "balanceOf",
      "outputs": [
        {
          "internalType": "uint256",
          "name": "",
          "type": "uint256"
        }
      ],
      "stateMutability": "view",
      "type": "function"
    },
    {
      "inputs": [
        {
          "internalType": "address",
          "name": "",
          "type": "address"
        }
      ],
      "name": "fertilizerLimit",
      "outputs": [
        {
          "internalType": "uint256",
          "name": "",
          "type": "uint256"
        }
      ],
      "stateMutability": "view",
      "type": "function"
    },
    {
      "inputs": [
        {
          "internalType": "address",
          "name": "",
          "type": "address"
        }
      ],
      "name": "fungicideLimit",
      "outputs": [
        {
          "internalType": "uint256",
          "name": "",
          "type": "uint256"
        }
      ],
      "stateMutability": "view",
      "type": "function"
    },
    {
      "inputs": [
        {
          "internalType": "address",
          "name": "",
          "type": "address"
        }
      ],
      "name": "herbicideLimit",
      "outputs": [
        {
          "internalType": "uint256",
          "name": "",
          "type": "uint256"
        }
      ],
      "stateMutability": "view",
      "type": "function"
    },
    {
      "inputs": [
        {
          "internalType": "address",
          "name": "",
          "type": "address"
        }
      ],
      "name": "insecticideLimit",
      "outputs": [
        {
          "internalType": "uint256",
          "name": "",
          "type": "uint256"
        }
      ],
      "stateMutability": "view",
      "type": "function"
    },
    {
      "inputs": [],
      "name": "name",
      "outputs": [
        {
          "internalType": "string",
          "name": "",
          "type": "string"
        }
      ],
      "stateMutability": "view",
      "type": "function"
    },
    {
      "inputs": [
        {
          "internalType": "address",
          "name": "_farm",
          "type": "address"
        },
        {
          "internalType": "uint256",
          "name": "_fertilizerLimit",
          "type": "uint256"
        }
      ],
      "name": "setFertilizerLimit",
      "outputs": [
        {
          "internalType": "bool",
          "name": "success",
          "type": "bool"
        }
      ],
      "stateMutability": "nonpayable",
      "type": "function"
    },
    {
      "inputs": [
        {
          "internalType": "address",
          "name": "_farm",
          "type": "address"
        },
        {
          "internalType": "uint256",
          "name": "_fungicideLimit",
          "type": "uint256"
        }
      ],
      "name": "setFungicideLimit",
      "outputs": [
        {
          "internalType": "bool",
          "name": "success",
          "type": "bool"
        }
      ],
      "stateMutability": "nonpayable",
      "type": "function"
    },
    {
      "inputs": [
        {
          "internalType": "address",
          "name": "_farm",
          "type": "address"
        },
        {
          "internalType": "uint256",
          "name": "_herbicideLimit",
          "type": "uint256"
        }
      ],
      "name": "setHerbicideLimit",
      "outputs": [
        {
          "internalType": "bool",
          "name": "success",
          "type": "bool"
        }
      ],
      "stateMutability": "nonpayable",
      "type": "function"
    },
    {
      "inputs": [
        {
          "internalType": "address",
          "name": "_farm",
          "type": "address"
        },
        {
          "internalType": "uint256",
          "name": "_insecticideLimit",
          "type": "uint256"
        }
      ],
      "name": "setInsecticideLimit",
      "outputs": [
        {
          "internalType": "bool",
          "name": "success",
          "type": "bool"
        }
      ],
      "stateMutability": "nonpayable",
      "type": "function"
    },
    {
      "inputs": [],
      "name": "symbol",
      "outputs": [
        {
          "internalType": "string",
          "name": "",
          "type": "string"
        }
      ],
      "stateMutability": "view",
      "type": "function"
    },
    {
      "inputs": [],
      "name": "totalSupply",
      "outputs": [
        {
          "internalType": "uint256",
          "name": "",
          "type": "uint256"
        }
      ],
      "stateMutability": "view",
      "type": "function"
    },
    {
      "inputs": [
        {
          "internalType": "address",
          "name": "_to",
          "type": "address"
        },
        {
          "internalType": "uint256",
          "name": "_value",
          "type": "uint256"
        }
      ],
      "name": "transfer",
      "outputs": [
        {
          "internalType": "bool",
          "name": "success",
          "type": "bool"
        }
      ],
      "stateMutability": "nonpayable",
      "type": "function"
    },
    {
      "inputs": [
        {
          "internalType": "string",
          "name": "_brand",
          "type": "string"
        },
        {
          "internalType": "string",
          "name": "_location",
          "type": "string"
        },
        {
          "internalType": "uint256",
          "name": "_amount",
          "type": "uint256"
        },
        {
          "internalType": "uint256",
          "name": "_cropCount",
          "type": "uint256"
        },
        {
          "internalType": "string",
          "name": "_cropType",
          "type": "string"
        }
      ],
      "name": "useFertilizer",
      "outputs": [
        {
          "internalType": "bool",
          "name": "success",
          "type": "bool"
        }
      ],
      "stateMutability": "nonpayable",
      "type": "function"
    },
    {
      "inputs": [
        {
          "internalType": "string",
          "name": "_brand",
          "type": "string"
        },
        {
          "internalType": "string",
          "name": "_location",
          "type": "string"
        },
        {
          "internalType": "uint256",
          "name": "_amount",
          "type": "uint256"
        },
        {
          "internalType": "uint256",
          "name": "_cropCount",
          "type": "uint256"
        },
        {
          "internalType": "string",
          "name": "_cropType",
          "type": "string"
        },
        {
          "internalType": "string",
          "name": "_typeOfPesticide",
          "type": "string"
        }
      ],
      "name": "usePesticide",
      "outputs": [
        {
          "internalType": "bool",
          "name": "success",
          "type": "bool"
        }
      ],
      "stateMutability": "nonpayable",
      "type": "function"
    }
  ],
  "bytecode": "0x60806040526040518060400160405280600981526020017f43726f70546f6b656e00000000000000000000000000000000000000000000008152506000908161004891906103a0565b506040518060400160405280600281526020017f43540000000000000000000000000000000000000000000000000000000000008152506001908161008d91906103a0565b5034801561009a57600080fd5b50604051613a9d380380613a9d83398181016040528101906100bc91906104a3565b80600281905550600254600460003373ffffffffffffffffffffffffffffffffffffffff1673ffffffffffffffffffffffffffffffffffffffff1681526020019081526020016000208190555033600360006101000a81548173ffffffffffffffffffffffffffffffffffffffff021916908373ffffffffffffffffffffffffffffffffffffffff160217905550506104d0565b600081519050919050565b7f4e487b7100000000000000000000000000000000000000000000000000000000600052604160045260246000fd5b7f4e487b7100000000000000000000000000000000000000000000000000000000600052602260045260246000fd5b600060028204905060018216806101d157607f821691505b6020821081036101e4576101e361018a565b5b50919050565b60008190508160005260206000209050919050565b60006020601f8301049050919050565b600082821b905092915050565b60006008830261024c7fffffffffffffffffffffffffffffffffffffffffffffffffffffffffffffffff8261020f565b610256868361020f565b95508019841693508086168417925050509392505050565b6000819050919050565b6000819050919050565b600061029d6102986102938461026e565b610278565b61026e565b9050919050565b6000819050919050565b6102b783610282565b6102cb6102c3826102a4565b84845461021c565b825550505050565b600090565b6102e06102d3565b6102eb8184846102ae565b505050565b5b8181101561030f576103046000826102d8565b6001810190506102f1565b5050565b601f82111561035457610325816101ea565b61032e846101ff565b8101602085101561033d578190505b610351610349856101ff565b8301826102f0565b50505b505050565b600082821c905092915050565b600061037760001984600802610359565b1980831691505092915050565b60006103908383610366565b9150826002028217905092915050565b6103a982610150565b67ffffffffffffffff8111156103c2576103c161015b565b5b6103cc82546101b9565b6103d7828285610313565b600060209050601f83116001811461040a57600084156103f8578287015190505b6104028582610384565b86555061046a565b601f198416610418866101ea565b60005b828110156104405784890151825560018201915060208501945060208101905061041b565b8683101561045d5784890151610459601f891682610366565b8355505b6001600288020188555050505b505050505050565b600080fd5b6104808161026e565b811461048b57600080fd5b50565b60008151905061049d81610477565b92915050565b6000602082840312156104b9576104b8610472565b5b60006104c78482850161048e565b91505092915050565b6135be806104df6000396000f3fe608060405234801561001057600080fd5b50600436106101165760003560e01c80638f658f04116100a2578063b101295411610071578063b101295414610355578063d5d7ffcd14610385578063da6e6de6146103b5578063e492315d146103e5578063ee0446b21461041557610116565b80638f658f04146102a757806395d89b41146102d7578063a27fb711146102f5578063a9059cbb1461032557610116565b80633b00a830116100e95780633b00a830146101b75780634a13385d146101e75780636c37f06b1461021757806370a082311461024757806386897ef91461027757610116565b806306fdde031461011b578063095ea7b31461013957806318160ddd146101695780632f58200914610187575b600080fd5b610123610445565b6040516101309190611e20565b60405180910390f35b610153600480360381019061014e9190611eea565b6104d3565b6040516101609190611f45565b60405180910390f35b61017161077f565b60405161017e9190611f6f565b60405180910390f35b6101a1600480360381019061019c91906120bf565b610785565b6040516101ae9190611f45565b60405180910390f35b6101d160048036038101906101cc919061218e565b610a37565b6040516101de9190611f6f565b60405180910390f35b61020160048036038101906101fc919061218e565b610a4f565b60405161020e9190611f6f565b60405180910390f35b610231600480360381019061022c91906121bb565b610a67565b60405161023e9190611f45565b60405180910390f35b610261600480360381019061025c919061218e565b610d39565b60405161026e9190611f6f565b60405180910390f35b610291600480360381019061028c9190611eea565b610d51565b60405161029e9190611f45565b60405180910390f35b6102c160048036038101906102bc919061218e565b610f15565b6040516102ce9190611f6f565b60405180910390f35b6102df610f2d565b6040516102ec9190611e20565b60405180910390f35b61030f600480360381019061030a919061220e565b610fbb565b60405161031c9190611f45565b60405180910390f35b61033f600480360381019061033a9190611eea565b611632565b60405161034c9190611f45565b60405180910390f35b61036f600480360381019061036a9190611eea565b611814565b60405161037c9190611f45565b60405180910390f35b61039f600480360381019061039a9190611eea565b6119d8565b6040516103ac9190611f45565b60405180910390f35b6103cf60048036038101906103ca919061218e565b611b9c565b6040516103dc9190611f6f565b60405180910390f35b6103ff60048036038101906103fa9190611eea565b611bb4565b60405161040c9190611f45565b60405180910390f35b61042f600480360381019061042a919061218e565b611d78565b60405161043c9190611f6f565b60405180910390f35b600080546104529061233a565b80601f016020809104026020016040519081016040528092919081815260200182805461047e9061233a565b80156104cb5780601f106104a0576101008083540402835291602001916104cb565b820191906000526020600020905b8154815290600101906020018083116104ae57829003601f168201915b505050505081565b600080821015610518576040517f08c379a000000000000000000000000000000000000000000000000000000000815260040161050f906123b7565b60405180910390fd5b600360009054906101000a900473ffffffffffffffffffffffffffffffffffffffff1673ffffffffffffffffffffffffffffffffffffffff163373ffffffffffffffffffffffffffffffffffffffff16146105a8576040517f08c379a000000000000000000000000000000000000000000000000000000000815260040161059f90612449565b60405180910390fd5b81600460003373ffffffffffffffffffffffffffffffffffffffff1673ffffffffffffffffffffffffffffffffffffffff16815260200190815260200160002054101561062a576040517f08c379a0000000000000000000000000000000000000000000000000000000008152600401610621906124b5565b60405180910390fd5b600360009054906101000a900473ffffffffffffffffffffffffffffffffffffffff1673ffffffffffffffffffffffffffffffffffffffff168373ffffffffffffffffffffffffffffffffffffffff16036106ba576040517f08c379a00000000000000000000000000000000000000000000000000000000081526004016106b190612547565b60405180910390fd5b81600560008573ffffffffffffffffffffffffffffffffffffffff1673ffffffffffffffffffffffffffffffffffffffff16815260200190815260200160002060008282546107099190612596565b925050819055508273ffffffffffffffffffffffffffffffffffffffff163373ffffffffffffffffffffffffffffffffffffffff167f8c5be1e5ebec7d5bd14f71427d1e84f3dd0314c0f7b2291e5b200ac8c7c3b9258460405161076d9190611f6f565b60405180910390a36001905092915050565b60025481565b6000808651116107ca576040517f08c379a00000000000000000000000000000000000000000000000000000000081526004016107c190612616565b60405180910390fd5b600085511161080e576040517f08c379a0000000000000000000000000000000000000000000000000000000008152600401610805906126a8565b60405180910390fd5b6000825111610852576040517f08c379a00000000000000000000000000000000000000000000000000000000081526004016108499061273a565b60405180910390fd5b60008411610895576040517f08c379a000000000000000000000000000000000000000000000000000000000815260040161088c906127cc565b60405180910390fd5b600660003373ffffffffffffffffffffffffffffffffffffffff1673ffffffffffffffffffffffffffffffffffffffff16815260200190815260200160002054841115610917576040517f08c379a000000000000000000000000000000000000000000000000000000000815260040161090e9061285e565b60405180910390fd5b6000831161095a576040517f08c379a0000000000000000000000000000000000000000000000000000000008152600401610951906128f0565b60405180910390fd5b60006040518060a0016040528088815260200187815260200186815260200185815260200184815250905084600660003373ffffffffffffffffffffffffffffffffffffffff1673ffffffffffffffffffffffffffffffffffffffff16815260200190815260200160002060008282546109d49190612910565b925050819055503373ffffffffffffffffffffffffffffffffffffffff167fd01151db5280529d8c6261363dcb2cbc6497ac8dc45cb908cebe51c9bed151a282604051610a219190612a21565b60405180910390a2600191505095945050505050565b60086020528060005260406000206000915090505481565b60076020528060005260406000206000915090505481565b600080821015610aac576040517f08c379a0000000000000000000000000000000000000000000000000000000008152600401610aa390612a8f565b60405180910390fd5b600560003373ffffffffffffffffffffffffffffffffffffffff1673ffffffffffffffffffffffffffffffffffffffff16815260200190815260200160002054821115610b2e576040517f08c379a0000000000000000000000000000000000000000000000000000000008152600401610b2590612b21565b60405180910390fd5b81600460008673ffffffffffffffffffffffffffffffffffffffff1673ffffffffffffffffffffffffffffffffffffffff168152602001908152602001600020541015610bb0576040517f08c379a0000000000000000000000000000000000000000000000000000000008152600401610ba7906124b5565b60405180910390fd5b81600460008673ffffffffffffffffffffffffffffffffffffffff1673ffffffffffffffffffffffffffffffffffffffff1681526020019081526020016000206000828254610bff9190612910565b9250508190555081600460008573ffffffffffffffffffffffffffffffffffffffff1673ffffffffffffffffffffffffffffffffffffffff1681526020019081526020016000206000828254610c559190612596565b9250508190555081600560003373ffffffffffffffffffffffffffffffffffffffff1673ffffffffffffffffffffffffffffffffffffffff1681526020019081526020016000206000828254610cab9190612910565b925050819055503373ffffffffffffffffffffffffffffffffffffffff168373ffffffffffffffffffffffffffffffffffffffff168573ffffffffffffffffffffffffffffffffffffffff167f254d550bc4358b4095d41e54422cf3053aec5e46dcc029184856bfd36fa820ee85604051610d269190611f6f565b60405180910390a4600190509392505050565b60046020528060005260406000206000915090505481565b6000600360009054906101000a900473ffffffffffffffffffffffffffffffffffffffff1673ffffffffffffffffffffffffffffffffffffffff163373ffffffffffffffffffffffffffffffffffffffff1614610de3576040517f08c379a0000000000000000000000000000000000000000000000000000000008152600401610dda90612bb3565b60405180910390fd5b60008211610e26576040517f08c379a0000000000000000000000000000000000000000000000000000000008152600401610e1d90612c45565b60405180910390fd5b81600760008573ffffffffffffffffffffffffffffffffffffffff1673ffffffffffffffffffffffffffffffffffffffff1681526020019081526020016000206000828254610e759190612596565b925050819055508273ffffffffffffffffffffffffffffffffffffffff167f447439e0b2d534115dc4f45199b2ac2476d275605c303f3d447979e3636245ba600760008673ffffffffffffffffffffffffffffffffffffffff1673ffffffffffffffffffffffffffffffffffffffff1681526020019081526020016000205484604051610f03929190612c65565b60405180910390a26001905092915050565b60066020528060005260406000206000915090505481565b60018054610f3a9061233a565b80601f0160208091040260200160405190810160405280929190818152602001828054610f669061233a565b8015610fb35780601f10610f8857610100808354040283529160200191610fb3565b820191906000526020600020905b815481529060010190602001808311610f9657829003601f168201915b505050505081565b600080875111611000576040517f08c379a0000000000000000000000000000000000000000000000000000000008152600401610ff790612cda565b60405180910390fd5b6000865111611044576040517f08c379a000000000000000000000000000000000000000000000000000000000815260040161103b90612d6c565b60405180910390fd5b6000835111611088576040517f08c379a000000000000000000000000000000000000000000000000000000000815260040161107f90612dfe565b60405180910390fd5b60008251116110cc576040517f08c379a00000000000000000000000000000000000000000000000000000000081526004016110c390612e90565b60405180910390fd5b6000851161110f576040517f08c379a000000000000000000000000000000000000000000000000000000000815260040161110690612f22565b60405180910390fd5b60008411611152576040517f08c379a000000000000000000000000000000000000000000000000000000000815260040161114990612fb4565b60405180910390fd5b60006040518060a001604052808981526020018881526020018781526020018681526020018581525090506040518060400160405280600981526020017f46756e6769636964650000000000000000000000000000000000000000000000815250805190602001208380519060200120036112f257600760003373ffffffffffffffffffffffffffffffffffffffff1673ffffffffffffffffffffffffffffffffffffffff16815260200190815260200160002054861115611249576040517f08c379a000000000000000000000000000000000000000000000000000000000815260040161124090613046565b60405180910390fd5b85600760003373ffffffffffffffffffffffffffffffffffffffff1673ffffffffffffffffffffffffffffffffffffffff16815260200190815260200160002060008282546112989190612910565b925050819055503373ffffffffffffffffffffffffffffffffffffffff167faadbb6c87719f092afbf45f31e1bbfad00963da5ff0f82f3f898879c96e8b145826040516112e59190612a21565b60405180910390a2611623565b6040518060400160405280600b81526020017f496e7365637469636964650000000000000000000000000000000000000000008152508051906020012083805190602001200361146757600860003373ffffffffffffffffffffffffffffffffffffffff1673ffffffffffffffffffffffffffffffffffffffff168152602001908152602001600020548611156113be576040517f08c379a00000000000000000000000000000000000000000000000000000000081526004016113b5906130d8565b60405180910390fd5b85600860003373ffffffffffffffffffffffffffffffffffffffff1673ffffffffffffffffffffffffffffffffffffffff168152602001908152602001600020600082825461140d9190612910565b925050819055503373ffffffffffffffffffffffffffffffffffffffff167f34d3abfe95633dbac85eadc55d2147409af66617832fec9dc718aa9c123421418260405161145a9190612a21565b60405180910390a2611622565b6040518060400160405280600981526020017f4865726269636964650000000000000000000000000000000000000000000000815250805190602001208380519060200120036115dc57600960003373ffffffffffffffffffffffffffffffffffffffff1673ffffffffffffffffffffffffffffffffffffffff16815260200190815260200160002054861115611533576040517f08c379a000000000000000000000000000000000000000000000000000000000815260040161152a9061316a565b60405180910390fd5b85600960003373ffffffffffffffffffffffffffffffffffffffff1673ffffffffffffffffffffffffffffffffffffffff16815260200190815260200160002060008282546115829190612910565b925050819055503373ffffffffffffffffffffffffffffffffffffffff167f09d4a1560791de1e623ce47c86c22c8dd22dec02f97b0318c43dbe4d3fac35d4826040516115cf9190612a21565b60405180910390a2611621565b6000600114611620576040517f08c379a0000000000000000000000000000000000000000000000000000000008152600401611617906131fc565b60405180910390fd5b5b5b5b60019150509695505050505050565b600080821015611677576040517f08c379a000000000000000000000000000000000000000000000000000000000815260040161166e90612a8f565b60405180910390fd5b81600460003373ffffffffffffffffffffffffffffffffffffffff1673ffffffffffffffffffffffffffffffffffffffff1681526020019081526020016000205410156116f9576040517f08c379a00000000000000000000000000000000000000000000000000000000081526004016116f0906124b5565b60405180910390fd5b81600460003373ffffffffffffffffffffffffffffffffffffffff1673ffffffffffffffffffffffffffffffffffffffff16815260200190815260200160002060008282546117489190612910565b9250508190555081600460008573ffffffffffffffffffffffffffffffffffffffff1673ffffffffffffffffffffffffffffffffffffffff168152602001908152602001600020600082825461179e9190612596565b925050819055508273ffffffffffffffffffffffffffffffffffffffff163373ffffffffffffffffffffffffffffffffffffffff167fddf252ad1be2c89b69c2b068fc378daa952ba7f163c4a11628f55a4df523b3ef846040516118029190611f6f565b60405180910390a36001905092915050565b6000600360009054906101000a900473ffffffffffffffffffffffffffffffffffffffff1673ffffffffffffffffffffffffffffffffffffffff163373ffffffffffffffffffffffffffffffffffffffff16146118a6576040517f08c379a000000000000000000000000000000000000000000000000000000000815260040161189d9061328e565b60405180910390fd5b600082116118e9576040517f08c379a00000000000000000000000000000000000000000000000000000000081526004016118e090613320565b60405180910390fd5b81600660008573ffffffffffffffffffffffffffffffffffffffff1673ffffffffffffffffffffffffffffffffffffffff16815260200190815260200160002060008282546119389190612596565b925050819055508273ffffffffffffffffffffffffffffffffffffffff167f8cf7e5349b4154958b54cd8b43d51be16a471325e9ab08e4beffdf4f449b69c6600660008673ffffffffffffffffffffffffffffffffffffffff1673ffffffffffffffffffffffffffffffffffffffff16815260200190815260200160002054846040516119c6929190612c65565b60405180910390a26001905092915050565b6000600360009054906101000a900473ffffffffffffffffffffffffffffffffffffffff1673ffffffffffffffffffffffffffffffffffffffff163373ffffffffffffffffffffffffffffffffffffffff1614611a6a576040517f08c379a0000000000000000000000000000000000000000000000000000000008152600401611a61906133b2565b60405180910390fd5b60008211611aad576040517f08c379a0000000000000000000000000000000000000000000000000000000008152600401611aa490613444565b60405180910390fd5b81600860008573ffffffffffffffffffffffffffffffffffffffff1673ffffffffffffffffffffffffffffffffffffffff1681526020019081526020016000206000828254611afc9190612596565b925050819055508273ffffffffffffffffffffffffffffffffffffffff167fde8c6273e068c25111b47cf2f04c6fbae55df994c9902840043c8766d5fc6f93600860008673ffffffffffffffffffffffffffffffffffffffff1673ffffffffffffffffffffffffffffffffffffffff1681526020019081526020016000205484604051611b8a929190612c65565b60405180910390a26001905092915050565b60096020528060005260406000206000915090505481565b6000600360009054906101000a900473ffffffffffffffffffffffffffffffffffffffff1673ffffffffffffffffffffffffffffffffffffffff163373ffffffffffffffffffffffffffffffffffffffff1614611c46576040517f08c379a0000000000000000000000000000000000000000000000000000000008152600401611c3d906134d6565b60405180910390fd5b60008211611c89576040517f08c379a0000000000000000000000000000000000000000000000000000000008152600401611c8090613568565b60405180910390fd5b81600960008573ffffffffffffffffffffffffffffffffffffffff1673ffffffffffffffffffffffffffffffffffffffff1681526020019081526020016000206000828254611cd89190612596565b925050819055508273ffffffffffffffffffffffffffffffffffffffff167f66cff483acbd5195f20e47891d26ec9ad0acc52af26d42457ba5a764a8bd8cc9600960008673ffffffffffffffffffffffffffffffffffffffff1673ffffffffffffffffffffffffffffffffffffffff1681526020019081526020016000205484604051611d66929190612c65565b60405180910390a26001905092915050565b60056020528060005260406000206000915090505481565b600081519050919050565b600082825260208201905092915050565b60005b83811015611dca578082015181840152602081019050611daf565b60008484015250505050565b6000601f19601f8301169050919050565b6000611df282611d90565b611dfc8185611d9b565b9350611e0c818560208601611dac565b611e1581611dd6565b840191505092915050565b60006020820190508181036000830152611e3a8184611de7565b905092915050565b6000604051905090565b600080fd5b600080fd5b600073ffffffffffffffffffffffffffffffffffffffff82169050919050565b6000611e8182611e56565b9050919050565b611e9181611e76565b8114611e9c57600080fd5b50565b600081359050611eae81611e88565b92915050565b6000819050919050565b611ec781611eb4565b8114611ed257600080fd5b50565b600081359050611ee481611ebe565b92915050565b60008060408385031215611f0157611f00611e4c565b5b6000611f0f85828601611e9f565b9250506020611f2085828601611ed5565b9150509250929050565b60008115159050919050565b611f3f81611f2a565b82525050565b6000602082019050611f5a6000830184611f36565b92915050565b611f6981611eb4565b82525050565b6000602082019050611f846000830184611f60565b92915050565b600080fd5b600080fd5b7f4e487b7100000000000000000000000000000000000000000000000000000000600052604160045260246000fd5b611fcc82611dd6565b810181811067ffffffffffffffff82111715611feb57611fea611f94565b5b80604052505050565b6000611ffe611e42565b905061200a8282611fc3565b919050565b600067ffffffffffffffff82111561202a57612029611f94565b5b61203382611dd6565b9050602081019050919050565b82818337600083830152505050565b600061206261205d8461200f565b611ff4565b90508281526020810184848401111561207e5761207d611f8f565b5b612089848285612040565b509392505050565b600082601f8301126120a6576120a5611f8a565b5b81356120b684826020860161204f565b91505092915050565b600080600080600060a086880312156120db576120da611e4c565b5b600086013567ffffffffffffffff8111156120f9576120f8611e51565b5b61210588828901612091565b955050602086013567ffffffffffffffff81111561212657612125611e51565b5b61213288828901612091565b945050604061214388828901611ed5565b935050606061215488828901611ed5565b925050608086013567ffffffffffffffff81111561217557612174611e51565b5b61218188828901612091565b9150509295509295909350565b6000602082840312156121a4576121a3611e4c565b5b60006121b284828501611e9f565b91505092915050565b6000806000606084860312156121d4576121d3611e4c565b5b60006121e286828701611e9f565b93505060206121f386828701611e9f565b925050604061220486828701611ed5565b9150509250925092565b60008060008060008060c0878903121561222b5761222a611e4c565b5b600087013567ffffffffffffffff81111561224957612248611e51565b5b61225589828a01612091565b965050602087013567ffffffffffffffff81111561227657612275611e51565b5b61228289828a01612091565b955050604061229389828a01611ed5565b94505060606122a489828a01611ed5565b935050608087013567ffffffffffffffff8111156122c5576122c4611e51565b5b6122d189828a01612091565b92505060a087013567ffffffffffffffff8111156122f2576122f1611e51565b5b6122fe89828a01612091565b9150509295509295509295565b7f4e487b7100000000000000000000000000000000000000000000000000000000600052602260045260246000fd5b6000600282049050600182168061235257607f821691505b6020821081036123655761236461230b565b5b50919050565b7f43616e6e6f7420617070726f7665206e65676174697665204d544b0000000000600082015250565b60006123a1601b83611d9b565b91506123ac8261236b565b602082019050919050565b600060208201905081810360008301526123d081612394565b9050919050565b7f596f7520646f206e6f742068617665207065726d697373696f6e20746f20617060008201527f70726f7665000000000000000000000000000000000000000000000000000000602082015250565b6000612433602583611d9b565b915061243e826123d7565b604082019050919050565b6000602082019050818103600083015261246281612426565b9050919050565b7f496e73756666696369656e742062616c616e6365000000000000000000000000600082015250565b600061249f601483611d9b565b91506124aa82612469565b602082019050919050565b600060208201905081810360008301526124ce81612492565b9050919050565b7f596f7520646f206e6f74206e65656420617070726f76616c20746f2073656e6460008201527f20746f6b656e7300000000000000000000000000000000000000000000000000602082015250565b6000612531602783611d9b565b915061253c826124d5565b604082019050919050565b6000602082019050818103600083015261256081612524565b9050919050565b7f4e487b7100000000000000000000000000000000000000000000000000000000600052601160045260246000fd5b60006125a182611eb4565b91506125ac83611eb4565b92508282019050808211156125c4576125c3612567565b5b92915050565b7f46657274696c697a6572206272616e64206d75737420626520676976656e0000600082015250565b6000612600601e83611d9b565b915061260b826125ca565b602082019050919050565b6000602082019050818103600083015261262f816125f3565b9050919050565b7f4c6f636174696f6e2077686572652066657274696c697a65722077617320757360008201527f6564206d75737420626520676976656e00000000000000000000000000000000602082015250565b6000612692603083611d9b565b915061269d82612636565b604082019050919050565b600060208201905081810360008301526126c181612685565b9050919050565b7f43726f702074797065206f6e2077686963682066657274696c697a657220776160008201527f732075736564206d75737420626520676976656e000000000000000000000000602082015250565b6000612724603483611d9b565b915061272f826126c8565b604082019050919050565b6000602082019050818103600083015261275381612717565b9050919050565b7f416d6f756e74206f662066657274696c697a65722075736564206d757374206260008201527f6520676976656e00000000000000000000000000000000000000000000000000602082015250565b60006127b6602783611d9b565b91506127c18261275a565b604082019050919050565b600060208201905081810360008301526127e5816127a9565b9050919050565b7f596f752063616e6e6f74207573652074686174206d7563682066657274696c6960008201527f7a65720000000000000000000000000000000000000000000000000000000000602082015250565b6000612848602383611d9b565b9150612853826127ec565b604082019050919050565b600060208201905081810360008301526128778161283b565b9050919050565b7f4e756d626572206f662063726f70732066657274696c697a657220776173207560008201527f736564206f6e206d75737420626520676976656e000000000000000000000000602082015250565b60006128da603483611d9b565b91506128e58261287e565b604082019050919050565b60006020820190508181036000830152612909816128cd565b9050919050565b600061291b82611eb4565b915061292683611eb4565b925082820390508181111561293e5761293d612567565b5b92915050565b600082825260208201905092915050565b600061296082611d90565b61296a8185612944565b935061297a818560208601611dac565b61298381611dd6565b840191505092915050565b61299781611eb4565b82525050565b600060a08301600083015184820360008601526129ba8282612955565b915050602083015184820360208601526129d48282612955565b91505060408301516129e9604086018261298e565b5060608301516129fc606086018261298e565b5060808301518482036080860152612a148282612955565b9150508091505092915050565b60006020820190508181036000830152612a3b818461299d565b905092915050565b7f43616e6e6f74207472616e73666572206e65676174697665204d544b00000000600082015250565b6000612a79601c83611d9b565b9150612a8482612a43565b602082019050919050565b60006020820190508181036000830152612aa881612a6c565b9050919050565b7f596f7520617265206e6f7420617070726f76656420746f207472616e7366657260008201527f2074686174206d75636800000000000000000000000000000000000000000000602082015250565b6000612b0b602a83611d9b565b9150612b1682612aaf565b604082019050919050565b60006020820190508181036000830152612b3a81612afe565b9050919050565b7f596f7520646f206e6f742068617665207065726d697373696f6e20746f20736560008201527f74207468652066756e676963696465206c696d69740000000000000000000000602082015250565b6000612b9d603583611d9b565b9150612ba882612b41565b604082019050919050565b60006020820190508181036000830152612bcc81612b90565b9050919050565b7f416d6f756e7420746f2061646420746f2066756e676963696465206c696d697460008201527f206d7573742062652067726561746572207468616e2030000000000000000000602082015250565b6000612c2f603783611d9b565b9150612c3a82612bd3565b604082019050919050565b60006020820190508181036000830152612c5e81612c22565b9050919050565b6000604082019050612c7a6000830185611f60565b612c876020830184611f60565b9392505050565b7f506573746963696465206272616e64206d75737420626520676976656e000000600082015250565b6000612cc4601d83611d9b565b9150612ccf82612c8e565b602082019050919050565b60006020820190508181036000830152612cf381612cb7565b9050919050565b7f4c6f636174696f6e20776865726520706573746963696465207761732075736560008201527f64206d75737420626520676976656e0000000000000000000000000000000000602082015250565b6000612d56602f83611d9b565b9150612d6182612cfa565b604082019050919050565b60006020820190508181036000830152612d8581612d49565b9050919050565b7f43726f702074797065206f6e207768696368207065737469636964652077617360008201527f2075736564206d75737420626520676976656e00000000000000000000000000602082015250565b6000612de8603383611d9b565b9150612df382612d8c565b604082019050919050565b60006020820190508181036000830152612e1781612ddb565b9050919050565b7f54797065206f6620706573746963696465207761732075736564206d7573742060008201527f626520676976656e000000000000000000000000000000000000000000000000602082015250565b6000612e7a602883611d9b565b9150612e8582612e1e565b604082019050919050565b60006020820190508181036000830152612ea981612e6d565b9050919050565b7f416d6f756e74206f66207065737469636964652075736564206d75737420626560008201527f20676976656e0000000000000000000000000000000000000000000000000000602082015250565b6000612f0c602683611d9b565b9150612f1782612eb0565b604082019050919050565b60006020820190508181036000830152612f3b81612eff565b9050919050565b7f4e756d626572206f662063726f7073207065737469636964652077617320757360008201527f6564206f6e206d75737420626520676976656e00000000000000000000000000602082015250565b6000612f9e603383611d9b565b9150612fa982612f42565b604082019050919050565b60006020820190508181036000830152612fcd81612f91565b9050919050565b7f596f752063616e6e6f74207573652074686174206d7563682066756e6769636960008201527f6465000000000000000000000000000000000000000000000000000000000000602082015250565b6000613030602283611d9b565b915061303b82612fd4565b604082019050919050565b6000602082019050818103600083015261305f81613023565b9050919050565b7f596f752063616e6e6f74207573652074686174206d75636820696e736563746960008201527f6369646500000000000000000000000000000000000000000000000000000000602082015250565b60006130c2602483611d9b565b91506130cd82613066565b604082019050919050565b600060208201905081810360008301526130f1816130b5565b9050919050565b7f596f752063616e6e6f74207573652074686174206d756368206865726269636960008201527f6465000000000000000000000000000000000000000000000000000000000000602082015250565b6000613154602283611d9b565b915061315f826130f8565b604082019050919050565b6000602082019050818103600083015261318381613147565b9050919050565b7f506573746963696465206d75737420626520612066756e6769636964652c206960008201527f6e7365637469636964652c206f72206865726269636964650000000000000000602082015250565b60006131e6603883611d9b565b91506131f18261318a565b604082019050919050565b60006020820190508181036000830152613215816131d9565b9050919050565b7f596f7520646f206e6f742068617665207065726d697373696f6e20746f20736560008201527f74207468652066657274696c697a6572206c696d697400000000000000000000602082015250565b6000613278603683611d9b565b91506132838261321c565b604082019050919050565b600060208201905081810360008301526132a78161326b565b9050919050565b7f416d6f756e7420746f2061646420746f2066657274696c697a6572206c696d6960008201527f74206d7573742062652067726561746572207468616e20300000000000000000602082015250565b600061330a603883611d9b565b9150613315826132ae565b604082019050919050565b60006020820190508181036000830152613339816132fd565b9050919050565b7f596f7520646f206e6f742068617665207065726d697373696f6e20746f20736560008201527f742074686520696e736563746963696465206c696d6974000000000000000000602082015250565b600061339c603783611d9b565b91506133a782613340565b604082019050919050565b600060208201905081810360008301526133cb8161338f565b9050919050565b7f416d6f756e7420746f2061646420746f20696e736563746963696465206c696d60008201527f6974206d7573742062652067726561746572207468616e203000000000000000602082015250565b600061342e603983611d9b565b9150613439826133d2565b604082019050919050565b6000602082019050818103600083015261345d81613421565b9050919050565b7f596f7520646f206e6f742068617665207065726d697373696f6e20746f20736560008201527f742074686520686572626963696465206c696d69740000000000000000000000602082015250565b60006134c0603583611d9b565b91506134cb82613464565b604082019050919050565b600060208201905081810360008301526134ef816134b3565b9050919050565b7f416d6f756e7420746f2061646420746f20686572626963696465206c696d697460008201527f206d7573742062652067726561746572207468616e2030000000000000000000602082015250565b6000613552603783611d9b565b915061355d826134f6565b604082019050919050565b6000602082019050818103600083015261358181613545565b905091905056fea26469706673582212208d65f469b647bb8345f24411adabd51566d39e55142ddf3d2181d409fd9bc30664736f6c634300081b0033",
  "linkReferences": {},
  "deployedLinkReferences": {}
}