{
  "_format": "hh-sol-artifact-1",
  "contractName": "CropToken",
  "sourceName": "contracts/MyToken.sol",
  "abi": [
    {
      "inputs": [
        {
          "internalType": "uint256",
          "name": "_initialSupply",
          "type": "uint256"
        }
      ],
      "stateMutability": "nonpayable",
      "type": "constructor"
    },
    {
      "anonymous": false,
      "inputs": [
        {
          "indexed": true,
          "internalType": "address",
          "name": "sender",
          "type": "address"
        },
        {
          "indexed": true,
          "internalType": "address",
          "name": "spender",
          "type": "address"
        },
        {
          "indexed": false,
          "internalType": "uint256",
          "name": "value",
          "type": "uint256"
        }
      ],
      "name": "Approval",
      "type": "event"
    },
    {
      "anonymous": false,
      "inputs": [
        {
          "indexed": true,
          "internalType": "address",
          "name": "from",
          "type": "address"
        },
        {
          "indexed": true,
          "internalType": "address",
          "name": "to",
          "type": "address"
        },
        {
          "indexed": true,
          "internalType": "address",
          "name": "sender",
          "type": "address"
        },
        {
          "indexed": false,
          "internalType": "uint256",
          "name": "value",
          "type": "uint256"
        }
      ],
      "name": "ApprovedTransfer",
      "type": "event"
    },
    {
      "anonymous": false,
      "inputs": [
        {
          "indexed": true,
          "internalType": "address",
          "name": "from",
          "type": "address"
        },
        {
          "components": [
            {
              "internalType": "string",
              "name": "brandUsed",
              "type": "string"
            },
            {
              "internalType": "string",
              "name": "locationUsed",
              "type": "string"
            },
            {
              "internalType": "uint256",
              "name": "amountUsed",
              "type": "uint256"
            },
            {
              "internalType": "uint256",
              "name": "cropCount",
              "type": "uint256"
            },
            {
              "internalType": "string",
              "name": "cropType",
              "type": "string"
            }
          ],
          "indexed": false,
          "internalType": "struct CropToken.Chemical",
          "name": "fertilizer",
          "type": "tuple"
        }
      ],
      "name": "Fertilizer",
      "type": "event"
    },
    {
      "anonymous": false,
      "inputs": [
        {
          "indexed": true,
          "internalType": "address",
          "name": "from",
          "type": "address"
        },
        {
          "components": [
            {
              "internalType": "string",
              "name": "brandUsed",
              "type": "string"
            },
            {
              "internalType": "string",
              "name": "locationUsed",
              "type": "string"
            },
            {
              "internalType": "uint256",
              "name": "amountUsed",
              "type": "uint256"
            },
            {
              "internalType": "uint256",
              "name": "cropCount",
              "type": "uint256"
            },
            {
              "internalType": "string",
              "name": "cropType",
              "type": "string"
            }
          ],
          "indexed": false,
          "internalType": "struct CropToken.Chemical",
          "name": "fungicide",
          "type": "tuple"
        }
      ],
      "name": "Fungicide",
      "type": "event"
    },
    {
      "anonymous": false,
      "inputs": [
        {
          "indexed": true,
          "internalType": "address",
          "name": "from",
          "type": "address"
        },
        {
          "components": [
            {
              "internalType": "string",
              "name": "brandUsed",
              "type": "string"
            },
            {
              "internalType": "string",
              "name": "locationUsed",
              "type": "string"
            },
            {
              "internalType": "uint256",
              "name": "amountUsed",
              "type": "uint256"
            },
            {
              "internalType": "uint256",
              "name": "cropCount",
              "type": "uint256"
            },
            {
              "internalType": "string",
              "name": "cropType",
              "type": "string"
            }
          ],
          "indexed": false,
          "internalType": "struct CropToken.Chemical",
          "name": "herbicide",
          "type": "tuple"
        }
      ],
      "name": "Herbicide",
      "type": "event"
    },
    {
      "anonymous": false,
      "inputs": [
        {
          "indexed": true,
          "internalType": "address",
          "name": "from",
          "type": "address"
        },
        {
          "components": [
            {
              "internalType": "string",
              "name": "brandUsed",
              "type": "string"
            },
            {
              "internalType": "string",
              "name": "locationUsed",
              "type": "string"
            },
            {
              "internalType": "uint256",
              "name": "amountUsed",
              "type": "uint256"
            },
            {
              "internalType": "uint256",
              "name": "cropCount",
              "type": "uint256"
            },
            {
              "internalType": "string",
              "name": "cropType",
              "type": "string"
            }
          ],
          "indexed": false,
          "internalType": "struct CropToken.Chemical",
          "name": "insecticide",
          "type": "tuple"
        }
      ],
      "name": "Insecticide",
      "type": "event"
    },
    {
      "anonymous": false,
      "inputs": [
        {
          "indexed": true,
          "internalType": "address",
          "name": "from",
          "type": "address"
        },
        {
          "indexed": true,
          "internalType": "address",
          "name": "to",
          "type": "address"
        },
        {
          "indexed": false,
          "internalType": "uint256",
          "name": "value",
          "type": "uint256"
        }
      ],
      "name": "Transfer",
      "type": "event"
    },
    {
      "inputs": [
        {
          "internalType": "address",
          "name": "_from",
          "type": "address"
        },
        {
          "internalType": "address",
          "name": "_to",
          "type": "address"
        },
        {
          "internalType": "uint256",
          "name": "_value",
          "type": "uint256"
        }
      ],
      "name": "approvalTransfer",
      "outputs": [
        {
          "internalType": "bool",
          "name": "success",
          "type": "bool"
        }
      ],
      "stateMutability": "nonpayable",
      "type": "function"
    },
    {
      "inputs": [
        {
          "internalType": "address",
          "name": "_spender",
          "type": "address"
        },
        {
          "internalType": "uint256",
          "name": "_value",
          "type": "uint256"
        }
      ],
      "name": "approve",
      "outputs": [
        {
          "internalType": "bool",
          "name": "success",
          "type": "bool"
        }
      ],
      "stateMutability": "nonpayable",
      "type": "function"
    },
    {
      "inputs": [
        {
          "internalType": "address",
          "name": "",
          "type": "address"
        }
      ],
      "name": "approvedAmount",
      "outputs": [
        {
          "internalType": "uint256",
          "name": "",
          "type": "uint256"
        }
      ],
      "stateMutability": "view",
      "type": "function"
    },
    {
      "inputs": [
        {
          "internalType": "address",
          "name": "",
          "type": "address"
        }
      ],
      "name": "balanceOf",
      "outputs": [
        {
          "internalType": "uint256",
          "name": "",
          "type": "uint256"
        }
      ],
      "stateMutability": "view",
      "type": "function"
    },
    {
      "inputs": [],
      "name": "name",
      "outputs": [
        {
          "internalType": "string",
          "name": "",
          "type": "string"
        }
      ],
      "stateMutability": "view",
      "type": "function"
    },
    {
      "inputs": [],
      "name": "symbol",
      "outputs": [
        {
          "internalType": "string",
          "name": "",
          "type": "string"
        }
      ],
      "stateMutability": "view",
      "type": "function"
    },
    {
      "inputs": [],
      "name": "totalSupply",
      "outputs": [
        {
          "internalType": "uint256",
          "name": "",
          "type": "uint256"
        }
      ],
      "stateMutability": "view",
      "type": "function"
    },
    {
      "inputs": [
        {
          "internalType": "address",
          "name": "_to",
          "type": "address"
        },
        {
          "internalType": "uint256",
          "name": "_value",
          "type": "uint256"
        }
      ],
      "name": "transfer",
      "outputs": [
        {
          "internalType": "bool",
          "name": "success",
          "type": "bool"
        }
      ],
      "stateMutability": "nonpayable",
      "type": "function"
    },
    {
      "inputs": [
        {
          "internalType": "string",
          "name": "_brand",
          "type": "string"
        },
        {
          "internalType": "string",
          "name": "_location",
          "type": "string"
        },
        {
          "internalType": "uint256",
          "name": "_amount",
          "type": "uint256"
        },
        {
          "internalType": "uint256",
          "name": "_cropCount",
          "type": "uint256"
        },
        {
          "internalType": "string",
          "name": "_cropType",
          "type": "string"
        }
      ],
      "name": "useFertilizer",
      "outputs": [
        {
          "internalType": "bool",
          "name": "success",
          "type": "bool"
        }
      ],
      "stateMutability": "nonpayable",
      "type": "function"
    },
    {
      "inputs": [
        {
          "internalType": "string",
          "name": "_brand",
          "type": "string"
        },
        {
          "internalType": "string",
          "name": "_location",
          "type": "string"
        },
        {
          "internalType": "uint256",
          "name": "_amount",
          "type": "uint256"
        },
        {
          "internalType": "uint256",
          "name": "_cropCount",
          "type": "uint256"
        },
        {
          "internalType": "string",
          "name": "_cropType",
          "type": "string"
        },
        {
          "internalType": "string",
          "name": "_typeOfPesticide",
          "type": "string"
        }
      ],
      "name": "usePesticide",
      "outputs": [
        {
          "internalType": "bool",
          "name": "success",
          "type": "bool"
        }
      ],
      "stateMutability": "nonpayable",
      "type": "function"
    }
  ],
  "bytecode": "0x60806040526040518060400160405280600981526020017f43726f70546f6b656e00000000000000000000000000000000000000000000008152506000908161004891906103a0565b506040518060400160405280600281526020017f43540000000000000000000000000000000000000000000000000000000000008152506001908161008d91906103a0565b5034801561009a57600080fd5b506040516126ca3803806126ca83398181016040528101906100bc91906104a3565b80600281905550600254600460003373ffffffffffffffffffffffffffffffffffffffff1673ffffffffffffffffffffffffffffffffffffffff1681526020019081526020016000208190555033600360006101000a81548173ffffffffffffffffffffffffffffffffffffffff021916908373ffffffffffffffffffffffffffffffffffffffff160217905550506104d0565b600081519050919050565b7f4e487b7100000000000000000000000000000000000000000000000000000000600052604160045260246000fd5b7f4e487b7100000000000000000000000000000000000000000000000000000000600052602260045260246000fd5b600060028204905060018216806101d157607f821691505b6020821081036101e4576101e361018a565b5b50919050565b60008190508160005260206000209050919050565b60006020601f8301049050919050565b600082821b905092915050565b60006008830261024c7fffffffffffffffffffffffffffffffffffffffffffffffffffffffffffffffff8261020f565b610256868361020f565b95508019841693508086168417925050509392505050565b6000819050919050565b6000819050919050565b600061029d6102986102938461026e565b610278565b61026e565b9050919050565b6000819050919050565b6102b783610282565b6102cb6102c3826102a4565b84845461021c565b825550505050565b600090565b6102e06102d3565b6102eb8184846102ae565b505050565b5b8181101561030f576103046000826102d8565b6001810190506102f1565b5050565b601f82111561035457610325816101ea565b61032e846101ff565b8101602085101561033d578190505b610351610349856101ff565b8301826102f0565b50505b505050565b600082821c905092915050565b600061037760001984600802610359565b1980831691505092915050565b60006103908383610366565b9150826002028217905092915050565b6103a982610150565b67ffffffffffffffff8111156103c2576103c161015b565b5b6103cc82546101b9565b6103d7828285610313565b600060209050601f83116001811461040a57600084156103f8578287015190505b6104028582610384565b86555061046a565b601f198416610418866101ea565b60005b828110156104405784890151825560018201915060208501945060208101905061041b565b8683101561045d5784890151610459601f891682610366565b8355505b6001600288020188555050505b505050505050565b600080fd5b6104808161026e565b811461048b57600080fd5b50565b60008151905061049d81610477565b92915050565b6000602082840312156104b9576104b8610472565b5b60006104c78482850161048e565b91505092915050565b6121eb806104df6000396000f3fe608060405234801561001057600080fd5b506004361061009e5760003560e01c806370a082311161006657806370a082311461016f57806395d89b411461019f578063a27fb711146101bd578063a9059cbb146101ed578063ee0446b21461021d5761009e565b806306fdde03146100a3578063095ea7b3146100c157806318160ddd146100f15780632f5820091461010f5780636c37f06b1461013f575b600080fd5b6100ab61024d565b6040516100b8919061114e565b60405180910390f35b6100db60048036038101906100d69190611218565b6102db565b6040516100e89190611273565b60405180910390f35b6100f9610587565b604051610106919061129d565b60405180910390f35b610129600480360381019061012491906113ed565b61058d565b6040516101369190611273565b60405180910390f35b610159600480360381019061015491906114bc565b610767565b6040516101669190611273565b60405180910390f35b6101896004803603810190610184919061150f565b610a39565b604051610196919061129d565b60405180910390f35b6101a7610a51565b6040516101b4919061114e565b60405180910390f35b6101d760048036038101906101d2919061153c565b610adf565b6040516101e49190611273565b60405180910390f35b61020760048036038101906102029190611218565b610ec4565b6040516102149190611273565b60405180910390f35b6102376004803603810190610232919061150f565b6110a6565b604051610244919061129d565b60405180910390f35b6000805461025a90611668565b80601f016020809104026020016040519081016040528092919081815260200182805461028690611668565b80156102d35780601f106102a8576101008083540402835291602001916102d3565b820191906000526020600020905b8154815290600101906020018083116102b657829003601f168201915b505050505081565b600080821015610320576040517f08c379a0000000000000000000000000000000000000000000000000000000008152600401610317906116e5565b60405180910390fd5b600360009054906101000a900473ffffffffffffffffffffffffffffffffffffffff1673ffffffffffffffffffffffffffffffffffffffff163373ffffffffffffffffffffffffffffffffffffffff16146103b0576040517f08c379a00000000000000000000000000000000000000000000000000000000081526004016103a790611777565b60405180910390fd5b81600460003373ffffffffffffffffffffffffffffffffffffffff1673ffffffffffffffffffffffffffffffffffffffff168152602001908152602001600020541015610432576040517f08c379a0000000000000000000000000000000000000000000000000000000008152600401610429906117e3565b60405180910390fd5b600360009054906101000a900473ffffffffffffffffffffffffffffffffffffffff1673ffffffffffffffffffffffffffffffffffffffff168373ffffffffffffffffffffffffffffffffffffffff16036104c2576040517f08c379a00000000000000000000000000000000000000000000000000000000081526004016104b990611875565b60405180910390fd5b81600560008573ffffffffffffffffffffffffffffffffffffffff1673ffffffffffffffffffffffffffffffffffffffff168152602001908152602001600020600082825461051191906118c4565b925050819055508273ffffffffffffffffffffffffffffffffffffffff163373ffffffffffffffffffffffffffffffffffffffff167f8c5be1e5ebec7d5bd14f71427d1e84f3dd0314c0f7b2291e5b200ac8c7c3b92584604051610575919061129d565b60405180910390a36001905092915050565b60025481565b6000808651116105d2576040517f08c379a00000000000000000000000000000000000000000000000000000000081526004016105c990611944565b60405180910390fd5b6000855111610616576040517f08c379a000000000000000000000000000000000000000000000000000000000815260040161060d906119d6565b60405180910390fd5b600082511161065a576040517f08c379a000000000000000000000000000000000000000000000000000000000815260040161065190611a68565b60405180910390fd5b6000841161069d576040517f08c379a000000000000000000000000000000000000000000000000000000000815260040161069490611afa565b60405180910390fd5b600083116106e0576040517f08c379a00000000000000000000000000000000000000000000000000000000081526004016106d790611b8c565b60405180910390fd5b60006040518060a001604052808881526020018781526020018681526020018581526020018481525090503373ffffffffffffffffffffffffffffffffffffffff167fd01151db5280529d8c6261363dcb2cbc6497ac8dc45cb908cebe51c9bed151a2826040516107519190611c89565b60405180910390a2600191505095945050505050565b6000808210156107ac576040517f08c379a00000000000000000000000000000000000000000000000000000000081526004016107a390611cf7565b60405180910390fd5b600560003373ffffffffffffffffffffffffffffffffffffffff1673ffffffffffffffffffffffffffffffffffffffff1681526020019081526020016000205482111561082e576040517f08c379a000000000000000000000000000000000000000000000000000000000815260040161082590611d89565b60405180910390fd5b81600460008673ffffffffffffffffffffffffffffffffffffffff1673ffffffffffffffffffffffffffffffffffffffff1681526020019081526020016000205410156108b0576040517f08c379a00000000000000000000000000000000000000000000000000000000081526004016108a7906117e3565b60405180910390fd5b81600460008673ffffffffffffffffffffffffffffffffffffffff1673ffffffffffffffffffffffffffffffffffffffff16815260200190815260200160002060008282546108ff9190611da9565b9250508190555081600460008573ffffffffffffffffffffffffffffffffffffffff1673ffffffffffffffffffffffffffffffffffffffff168152602001908152602001600020600082825461095591906118c4565b9250508190555081600560003373ffffffffffffffffffffffffffffffffffffffff1673ffffffffffffffffffffffffffffffffffffffff16815260200190815260200160002060008282546109ab9190611da9565b925050819055503373ffffffffffffffffffffffffffffffffffffffff168373ffffffffffffffffffffffffffffffffffffffff168573ffffffffffffffffffffffffffffffffffffffff167f254d550bc4358b4095d41e54422cf3053aec5e46dcc029184856bfd36fa820ee85604051610a26919061129d565b60405180910390a4600190509392505050565b60046020528060005260406000206000915090505481565b60018054610a5e90611668565b80601f0160208091040260200160405190810160405280929190818152602001828054610a8a90611668565b8015610ad75780601f10610aac57610100808354040283529160200191610ad7565b820191906000526020600020905b815481529060010190602001808311610aba57829003601f168201915b505050505081565b600080875111610b24576040517f08c379a0000000000000000000000000000000000000000000000000000000008152600401610b1b90611e29565b60405180910390fd5b6000865111610b68576040517f08c379a0000000000000000000000000000000000000000000000000000000008152600401610b5f90611ebb565b60405180910390fd5b6000835111610bac576040517f08c379a0000000000000000000000000000000000000000000000000000000008152600401610ba390611f4d565b60405180910390fd5b6000825111610bf0576040517f08c379a0000000000000000000000000000000000000000000000000000000008152600401610be790611fdf565b60405180910390fd5b60008511610c33576040517f08c379a0000000000000000000000000000000000000000000000000000000008152600401610c2a90612071565b60405180910390fd5b60008411610c76576040517f08c379a0000000000000000000000000000000000000000000000000000000008152600401610c6d90612103565b60405180910390fd5b60006040518060a001604052808981526020018881526020018781526020018681526020018581525090506040518060400160405280600981526020017f46756e676963696465000000000000000000000000000000000000000000000081525080519060200120838051906020012003610d3a573373ffffffffffffffffffffffffffffffffffffffff167faadbb6c87719f092afbf45f31e1bbfad00963da5ff0f82f3f898879c96e8b14582604051610d319190611c89565b60405180910390a25b6040518060400160405280600b81526020017f496e73656374696369646500000000000000000000000000000000000000000081525080519060200120838051906020012003610dd3573373ffffffffffffffffffffffffffffffffffffffff167f34d3abfe95633dbac85eadc55d2147409af66617832fec9dc718aa9c1234214182604051610dca9190611c89565b60405180910390a25b6040518060400160405280600981526020017f486572626963696465000000000000000000000000000000000000000000000081525080519060200120838051906020012003610e70573373ffffffffffffffffffffffffffffffffffffffff167f09d4a1560791de1e623ce47c86c22c8dd22dec02f97b0318c43dbe4d3fac35d482604051610e639190611c89565b60405180910390a2610eb5565b6000600114610eb4576040517f08c379a0000000000000000000000000000000000000000000000000000000008152600401610eab90612195565b60405180910390fd5b5b60019150509695505050505050565b600080821015610f09576040517f08c379a0000000000000000000000000000000000000000000000000000000008152600401610f0090611cf7565b60405180910390fd5b81600460003373ffffffffffffffffffffffffffffffffffffffff1673ffffffffffffffffffffffffffffffffffffffff168152602001908152602001600020541015610f8b576040517f08c379a0000000000000000000000000000000000000000000000000000000008152600401610f82906117e3565b60405180910390fd5b81600460003373ffffffffffffffffffffffffffffffffffffffff1673ffffffffffffffffffffffffffffffffffffffff1681526020019081526020016000206000828254610fda9190611da9565b9250508190555081600460008573ffffffffffffffffffffffffffffffffffffffff1673ffffffffffffffffffffffffffffffffffffffff168152602001908152602001600020600082825461103091906118c4565b925050819055508273ffffffffffffffffffffffffffffffffffffffff163373ffffffffffffffffffffffffffffffffffffffff167fddf252ad1be2c89b69c2b068fc378daa952ba7f163c4a11628f55a4df523b3ef84604051611094919061129d565b60405180910390a36001905092915050565b60056020528060005260406000206000915090505481565b600081519050919050565b600082825260208201905092915050565b60005b838110156110f85780820151818401526020810190506110dd565b60008484015250505050565b6000601f19601f8301169050919050565b6000611120826110be565b61112a81856110c9565b935061113a8185602086016110da565b61114381611104565b840191505092915050565b600060208201905081810360008301526111688184611115565b905092915050565b6000604051905090565b600080fd5b600080fd5b600073ffffffffffffffffffffffffffffffffffffffff82169050919050565b60006111af82611184565b9050919050565b6111bf816111a4565b81146111ca57600080fd5b50565b6000813590506111dc816111b6565b92915050565b6000819050919050565b6111f5816111e2565b811461120057600080fd5b50565b600081359050611212816111ec565b92915050565b6000806040838503121561122f5761122e61117a565b5b600061123d858286016111cd565b925050602061124e85828601611203565b9150509250929050565b60008115159050919050565b61126d81611258565b82525050565b60006020820190506112886000830184611264565b92915050565b611297816111e2565b82525050565b60006020820190506112b2600083018461128e565b92915050565b600080fd5b600080fd5b7f4e487b7100000000000000000000000000000000000000000000000000000000600052604160045260246000fd5b6112fa82611104565b810181811067ffffffffffffffff82111715611319576113186112c2565b5b80604052505050565b600061132c611170565b905061133882826112f1565b919050565b600067ffffffffffffffff821115611358576113576112c2565b5b61136182611104565b9050602081019050919050565b82818337600083830152505050565b600061139061138b8461133d565b611322565b9050828152602081018484840111156113ac576113ab6112bd565b5b6113b784828561136e565b509392505050565b600082601f8301126113d4576113d36112b8565b5b81356113e484826020860161137d565b91505092915050565b600080600080600060a086880312156114095761140861117a565b5b600086013567ffffffffffffffff8111156114275761142661117f565b5b611433888289016113bf565b955050602086013567ffffffffffffffff8111156114545761145361117f565b5b611460888289016113bf565b945050604061147188828901611203565b935050606061148288828901611203565b925050608086013567ffffffffffffffff8111156114a3576114a261117f565b5b6114af888289016113bf565b9150509295509295909350565b6000806000606084860312156114d5576114d461117a565b5b60006114e3868287016111cd565b93505060206114f4868287016111cd565b925050604061150586828701611203565b9150509250925092565b6000602082840312156115255761152461117a565b5b6000611533848285016111cd565b91505092915050565b60008060008060008060c087890312156115595761155861117a565b5b600087013567ffffffffffffffff8111156115775761157661117f565b5b61158389828a016113bf565b965050602087013567ffffffffffffffff8111156115a4576115a361117f565b5b6115b089828a016113bf565b95505060406115c189828a01611203565b94505060606115d289828a01611203565b935050608087013567ffffffffffffffff8111156115f3576115f261117f565b5b6115ff89828a016113bf565b92505060a087013567ffffffffffffffff8111156116205761161f61117f565b5b61162c89828a016113bf565b9150509295509295509295565b7f4e487b7100000000000000000000000000000000000000000000000000000000600052602260045260246000fd5b6000600282049050600182168061168057607f821691505b60208210810361169357611692611639565b5b50919050565b7f43616e6e6f7420617070726f7665206e65676174697665204d544b0000000000600082015250565b60006116cf601b836110c9565b91506116da82611699565b602082019050919050565b600060208201905081810360008301526116fe816116c2565b9050919050565b7f596f7520646f206e6f742068617665207065726d697373696f6e20746f20617060008201527f70726f7665000000000000000000000000000000000000000000000000000000602082015250565b60006117616025836110c9565b915061176c82611705565b604082019050919050565b6000602082019050818103600083015261179081611754565b9050919050565b7f496e73756666696369656e742062616c616e6365000000000000000000000000600082015250565b60006117cd6014836110c9565b91506117d882611797565b602082019050919050565b600060208201905081810360008301526117fc816117c0565b9050919050565b7f596f7520646f206e6f74206e65656420617070726f76616c20746f2073656e6460008201527f20746f6b656e7300000000000000000000000000000000000000000000000000602082015250565b600061185f6027836110c9565b915061186a82611803565b604082019050919050565b6000602082019050818103600083015261188e81611852565b9050919050565b7f4e487b7100000000000000000000000000000000000000000000000000000000600052601160045260246000fd5b60006118cf826111e2565b91506118da836111e2565b92508282019050808211156118f2576118f1611895565b5b92915050565b7f46657274696c697a6572206272616e64206d75737420626520676976656e0000600082015250565b600061192e601e836110c9565b9150611939826118f8565b602082019050919050565b6000602082019050818103600083015261195d81611921565b9050919050565b7f4c6f636174696f6e2077686572652066657274696c697a65722077617320757360008201527f6564206d75737420626520676976656e00000000000000000000000000000000602082015250565b60006119c06030836110c9565b91506119cb82611964565b604082019050919050565b600060208201905081810360008301526119ef816119b3565b9050919050565b7f43726f702074797065206f6e2077686963682066657274696c697a657220776160008201527f732075736564206d75737420626520676976656e000000000000000000000000602082015250565b6000611a526034836110c9565b9150611a5d826119f6565b604082019050919050565b60006020820190508181036000830152611a8181611a45565b9050919050565b7f416d6f756e74206f662066657274696c697a65722075736564206d757374206260008201527f6520676976656e00000000000000000000000000000000000000000000000000602082015250565b6000611ae46027836110c9565b9150611aef82611a88565b604082019050919050565b60006020820190508181036000830152611b1381611ad7565b9050919050565b7f4e756d626572206f662063726f70732066657274696c697a657220776173207560008201527f736564206f6e206d75737420626520676976656e000000000000000000000000602082015250565b6000611b766034836110c9565b9150611b8182611b1a565b604082019050919050565b60006020820190508181036000830152611ba581611b69565b9050919050565b600082825260208201905092915050565b6000611bc8826110be565b611bd28185611bac565b9350611be28185602086016110da565b611beb81611104565b840191505092915050565b611bff816111e2565b82525050565b600060a0830160008301518482036000860152611c228282611bbd565b91505060208301518482036020860152611c3c8282611bbd565b9150506040830151611c516040860182611bf6565b506060830151611c646060860182611bf6565b5060808301518482036080860152611c7c8282611bbd565b9150508091505092915050565b60006020820190508181036000830152611ca38184611c05565b905092915050565b7f43616e6e6f74207472616e73666572206e65676174697665204d544b00000000600082015250565b6000611ce1601c836110c9565b9150611cec82611cab565b602082019050919050565b60006020820190508181036000830152611d1081611cd4565b9050919050565b7f596f7520617265206e6f7420617070726f76656420746f207472616e7366657260008201527f2074686174206d75636800000000000000000000000000000000000000000000602082015250565b6000611d73602a836110c9565b9150611d7e82611d17565b604082019050919050565b60006020820190508181036000830152611da281611d66565b9050919050565b6000611db4826111e2565b9150611dbf836111e2565b9250828203905081811115611dd757611dd6611895565b5b92915050565b7f506573746963696465206272616e64206d75737420626520676976656e000000600082015250565b6000611e13601d836110c9565b9150611e1e82611ddd565b602082019050919050565b60006020820190508181036000830152611e4281611e06565b9050919050565b7f4c6f636174696f6e20776865726520706573746963696465207761732075736560008201527f64206d75737420626520676976656e0000000000000000000000000000000000602082015250565b6000611ea5602f836110c9565b9150611eb082611e49565b604082019050919050565b60006020820190508181036000830152611ed481611e98565b9050919050565b7f43726f702074797065206f6e207768696368207065737469636964652077617360008201527f2075736564206d75737420626520676976656e00000000000000000000000000602082015250565b6000611f376033836110c9565b9150611f4282611edb565b604082019050919050565b60006020820190508181036000830152611f6681611f2a565b9050919050565b7f54797065206f6620706573746963696465207761732075736564206d7573742060008201527f626520676976656e000000000000000000000000000000000000000000000000602082015250565b6000611fc96028836110c9565b9150611fd482611f6d565b604082019050919050565b60006020820190508181036000830152611ff881611fbc565b9050919050565b7f416d6f756e74206f66207065737469636964652075736564206d75737420626560008201527f20676976656e0000000000000000000000000000000000000000000000000000602082015250565b600061205b6026836110c9565b915061206682611fff565b604082019050919050565b6000602082019050818103600083015261208a8161204e565b9050919050565b7f4e756d626572206f662063726f7073207065737469636964652077617320757360008201527f6564206f6e206d75737420626520676976656e00000000000000000000000000602082015250565b60006120ed6033836110c9565b91506120f882612091565b604082019050919050565b6000602082019050818103600083015261211c816120e0565b9050919050565b7f506573746963696465206d75737420626520612066756e6769636964652c206960008201527f6e7365637469636964652c206f72206865726269636964650000000000000000602082015250565b600061217f6038836110c9565b915061218a82612123565b604082019050919050565b600060208201905081810360008301526121ae81612172565b905091905056fea264697066735822122059bde913d3604e4967a596cb80b33de57e69cd7403e50c33860f717970d10f2464736f6c634300081b0033",
  "linkReferences": {},
  "deployedLinkReferences": {}
}